{
  "_format": "hh-sol-artifact-1",
  "contractName": "ElectionManager",
  "sourceName": "contracts/ElectionManager.sol",
  "abi": [
    {
      "inputs": [],
      "stateMutability": "nonpayable",
      "type": "constructor"
    },
    {
      "anonymous": false,
      "inputs": [
        {
          "indexed": false,
          "internalType": "uint256",
          "name": "electionId",
          "type": "uint256"
        },
        {
          "indexed": false,
          "internalType": "uint256",
          "name": "candidateId",
          "type": "uint256"
        },
        {
          "indexed": false,
          "internalType": "string",
          "name": "name",
          "type": "string"
        }
      ],
      "name": "CandidateAdded",
      "type": "event"
    },
    {
      "anonymous": false,
      "inputs": [
        {
          "indexed": false,
          "internalType": "uint256",
          "name": "electionId",
          "type": "uint256"
        },
        {
          "indexed": false,
          "internalType": "string",
          "name": "title",
          "type": "string"
        }
      ],
      "name": "ElectionCreated",
      "type": "event"
    },
    {
      "anonymous": false,
      "inputs": [
        {
          "indexed": false,
          "internalType": "uint256",
          "name": "electionId",
          "type": "uint256"
        },
        {
          "indexed": false,
          "internalType": "uint256",
          "name": "endTime",
          "type": "uint256"
        }
      ],
      "name": "ElectionEnded",
      "type": "event"
    },
    {
      "anonymous": false,
      "inputs": [
        {
          "indexed": false,
          "internalType": "uint256",
          "name": "electionId",
          "type": "uint256"
        },
        {
          "indexed": false,
          "internalType": "address",
          "name": "voter",
          "type": "address"
        },
        {
          "indexed": false,
          "internalType": "uint256",
          "name": "candidateId",
          "type": "uint256"
        }
      ],
      "name": "VoteCasted",
      "type": "event"
    },
    {
      "anonymous": false,
      "inputs": [
        {
          "indexed": false,
          "internalType": "address",
          "name": "voter",
          "type": "address"
        },
        {
          "indexed": false,
          "internalType": "string",
          "name": "matricNo",
          "type": "string"
        }
      ],
      "name": "VoterRegistered",
      "type": "event"
    },
    {
      "anonymous": false,
      "inputs": [
        {
          "indexed": false,
          "internalType": "address",
          "name": "voter",
          "type": "address"
        }
      ],
      "name": "VoterVerified",
      "type": "event"
    },
    {
      "inputs": [
        {
          "internalType": "uint256",
          "name": "_electionId",
          "type": "uint256"
        },
        {
          "internalType": "string",
          "name": "_name",
          "type": "string"
        }
      ],
      "name": "addCandidate",
      "outputs": [],
      "stateMutability": "nonpayable",
      "type": "function"
    },
    {
      "inputs": [],
      "name": "admin",
      "outputs": [
        {
          "internalType": "address",
          "name": "",
          "type": "address"
        }
      ],
      "stateMutability": "view",
      "type": "function"
    },
    {
      "inputs": [
        {
          "internalType": "string",
          "name": "_title",
          "type": "string"
        },
        {
          "internalType": "string",
          "name": "_description",
          "type": "string"
        },
        {
          "internalType": "uint256",
          "name": "_startTime",
          "type": "uint256"
        },
        {
          "internalType": "uint256",
          "name": "_endTime",
          "type": "uint256"
        }
      ],
      "name": "createElection",
      "outputs": [],
      "stateMutability": "nonpayable",
      "type": "function"
    },
    {
      "inputs": [
        {
          "internalType": "uint256",
          "name": "_electionId",
          "type": "uint256"
        },
        {
          "internalType": "uint256",
          "name": "_candidateId",
          "type": "uint256"
        }
      ],
      "name": "deleteCandidate",
      "outputs": [],
      "stateMutability": "nonpayable",
      "type": "function"
    },
    {
      "inputs": [
        {
          "internalType": "uint256",
          "name": "_electionId",
          "type": "uint256"
        }
      ],
      "name": "deleteElection",
      "outputs": [],
      "stateMutability": "nonpayable",
      "type": "function"
    },
    {
      "inputs": [],
      "name": "electionCount",
      "outputs": [
        {
          "internalType": "uint256",
          "name": "",
          "type": "uint256"
        }
      ],
      "stateMutability": "view",
      "type": "function"
    },
    {
      "inputs": [
        {
          "internalType": "uint256",
          "name": "",
          "type": "uint256"
        }
      ],
      "name": "elections",
      "outputs": [
        {
          "internalType": "uint256",
          "name": "id",
          "type": "uint256"
        },
        {
          "internalType": "string",
          "name": "title",
          "type": "string"
        },
        {
          "internalType": "string",
          "name": "description",
          "type": "string"
        },
        {
          "internalType": "uint256",
          "name": "startTime",
          "type": "uint256"
        },
        {
          "internalType": "uint256",
          "name": "endTime",
          "type": "uint256"
        },
        {
          "internalType": "uint256",
          "name": "candidateCount",
          "type": "uint256"
        }
      ],
      "stateMutability": "view",
      "type": "function"
    },
    {
      "inputs": [
        {
          "internalType": "uint256",
          "name": "_electionId",
          "type": "uint256"
        }
      ],
      "name": "endElectionEarly",
      "outputs": [],
      "stateMutability": "nonpayable",
      "type": "function"
    },
    {
      "inputs": [],
      "name": "getAllElections",
      "outputs": [
        {
          "components": [
            {
              "internalType": "uint256",
              "name": "id",
              "type": "uint256"
            },
            {
              "internalType": "string",
              "name": "title",
              "type": "string"
            },
            {
              "internalType": "string",
              "name": "description",
              "type": "string"
            },
            {
              "internalType": "uint256",
              "name": "startTime",
              "type": "uint256"
            },
            {
              "internalType": "uint256",
              "name": "endTime",
              "type": "uint256"
            },
            {
              "internalType": "uint256",
              "name": "candidateCount",
              "type": "uint256"
            }
          ],
          "internalType": "struct ElectionManager.ElectionSummary[]",
          "name": "",
          "type": "tuple[]"
        }
      ],
      "stateMutability": "view",
      "type": "function"
    },
    {
      "inputs": [],
      "name": "getAllVoters",
      "outputs": [
        {
          "components": [
            {
              "internalType": "string",
              "name": "name",
              "type": "string"
            },
            {
              "internalType": "string",
              "name": "matricNo",
              "type": "string"
            },
            {
              "internalType": "address",
              "name": "wallet",
              "type": "address"
            },
            {
              "internalType": "bool",
              "name": "isVerified",
              "type": "bool"
            },
            {
              "internalType": "bool",
              "name": "hasVoted",
              "type": "bool"
            }
          ],
          "internalType": "struct ElectionManager.Voter[]",
          "name": "",
          "type": "tuple[]"
        }
      ],
      "stateMutability": "view",
      "type": "function"
    },
    {
      "inputs": [
        {
          "internalType": "uint256",
          "name": "_electionId",
          "type": "uint256"
        },
        {
          "internalType": "uint256",
          "name": "_candidateId",
          "type": "uint256"
        }
      ],
      "name": "getCandidate",
      "outputs": [
        {
          "internalType": "uint256",
          "name": "",
          "type": "uint256"
        },
        {
          "internalType": "string",
          "name": "",
          "type": "string"
        },
        {
          "internalType": "uint256",
          "name": "",
          "type": "uint256"
        }
      ],
      "stateMutability": "view",
      "type": "function"
    },
    {
      "inputs": [
        {
          "internalType": "uint256",
          "name": "_electionId",
          "type": "uint256"
        }
      ],
      "name": "getCandidates",
      "outputs": [
        {
          "components": [
            {
              "internalType": "uint256",
              "name": "id",
              "type": "uint256"
            },
            {
              "internalType": "string",
              "name": "name",
              "type": "string"
            },
            {
              "internalType": "uint256",
              "name": "voteCount",
              "type": "uint256"
            }
          ],
          "internalType": "struct ElectionManager.Candidate[]",
          "name": "",
          "type": "tuple[]"
        }
      ],
      "stateMutability": "view",
      "type": "function"
    },
    {
      "inputs": [
        {
          "internalType": "uint256",
          "name": "_electionId",
          "type": "uint256"
        }
      ],
      "name": "getCandidatesWithLock",
      "outputs": [
        {
          "components": [
            {
              "internalType": "uint256",
              "name": "id",
              "type": "uint256"
            },
            {
              "internalType": "string",
              "name": "name",
              "type": "string"
            },
            {
              "internalType": "uint256",
              "name": "voteCount",
              "type": "uint256"
            }
          ],
          "internalType": "struct ElectionManager.Candidate[]",
          "name": "",
          "type": "tuple[]"
        },
        {
          "internalType": "bool",
          "name": "electionLocked",
          "type": "bool"
        }
      ],
      "stateMutability": "view",
      "type": "function"
    },
    {
      "inputs": [
        {
          "internalType": "uint256",
          "name": "_id",
          "type": "uint256"
        }
      ],
      "name": "getElection",
      "outputs": [
        {
          "internalType": "uint256",
          "name": "id",
          "type": "uint256"
        },
        {
          "internalType": "string",
          "name": "title",
          "type": "string"
        },
        {
          "internalType": "string",
          "name": "description",
          "type": "string"
        },
        {
          "internalType": "uint256",
          "name": "startTime",
          "type": "uint256"
        },
        {
          "internalType": "uint256",
          "name": "endTime",
          "type": "uint256"
        },
        {
          "internalType": "uint256",
          "name": "candidateCount",
          "type": "uint256"
        }
      ],
      "stateMutability": "view",
      "type": "function"
    },
    {
      "inputs": [
        {
          "internalType": "uint256",
          "name": "_electionId",
          "type": "uint256"
        }
      ],
      "name": "getResults",
      "outputs": [
        {
          "components": [
            {
              "internalType": "uint256",
              "name": "id",
              "type": "uint256"
            },
            {
              "internalType": "string",
              "name": "name",
              "type": "string"
            },
            {
              "internalType": "uint256",
              "name": "voteCount",
              "type": "uint256"
            }
          ],
          "internalType": "struct ElectionManager.Candidate[]",
          "name": "",
          "type": "tuple[]"
        }
      ],
      "stateMutability": "view",
      "type": "function"
    },
    {
      "inputs": [
        {
          "internalType": "address",
          "name": "_wallet",
          "type": "address"
        }
      ],
      "name": "getVoter",
      "outputs": [
        {
          "internalType": "string",
          "name": "name",
          "type": "string"
        },
        {
          "internalType": "string",
          "name": "matricNo",
          "type": "string"
        },
        {
          "internalType": "address",
          "name": "wallet",
          "type": "address"
        },
        {
          "internalType": "bool",
          "name": "isVerified",
          "type": "bool"
        },
        {
          "internalType": "bool",
          "name": "hasVoted",
          "type": "bool"
        }
      ],
      "stateMutability": "view",
      "type": "function"
    },
    {
      "inputs": [
        {
          "internalType": "address",
          "name": "_wallet",
          "type": "address"
        }
      ],
      "name": "hasVoterVoted",
      "outputs": [
        {
          "internalType": "bool",
          "name": "",
          "type": "bool"
        }
      ],
      "stateMutability": "view",
      "type": "function"
    },
    {
      "inputs": [
        {
          "internalType": "address",
          "name": "_wallet",
          "type": "address"
        }
      ],
      "name": "isVoterVerified",
      "outputs": [
        {
          "internalType": "bool",
          "name": "",
          "type": "bool"
        }
      ],
      "stateMutability": "view",
      "type": "function"
    },
    {
      "inputs": [
        {
          "internalType": "string",
          "name": "",
          "type": "string"
        }
      ],
      "name": "matricToWallet",
      "outputs": [
        {
          "internalType": "address",
          "name": "",
          "type": "address"
        }
      ],
      "stateMutability": "view",
      "type": "function"
    },
    {
      "inputs": [
        {
          "internalType": "string",
          "name": "_name",
          "type": "string"
        },
        {
          "internalType": "string",
          "name": "_matricNo",
          "type": "string"
        }
      ],
      "name": "registerVoter",
      "outputs": [],
      "stateMutability": "nonpayable",
      "type": "function"
    },
    {
      "inputs": [
        {
          "internalType": "uint256",
          "name": "_electionId",
          "type": "uint256"
        },
        {
          "internalType": "uint256",
          "name": "_candidateId",
          "type": "uint256"
        },
        {
          "internalType": "string",
          "name": "_name",
          "type": "string"
        }
      ],
      "name": "updateCandidate",
      "outputs": [],
      "stateMutability": "nonpayable",
      "type": "function"
    },
    {
      "inputs": [
        {
          "internalType": "uint256",
          "name": "_electionId",
          "type": "uint256"
        },
        {
          "internalType": "string",
          "name": "_title",
          "type": "string"
        },
        {
          "internalType": "string",
          "name": "_description",
          "type": "string"
        },
        {
          "internalType": "uint256",
          "name": "_startTime",
          "type": "uint256"
        },
        {
          "internalType": "uint256",
          "name": "_endTime",
          "type": "uint256"
        }
      ],
      "name": "updateElection",
      "outputs": [],
      "stateMutability": "nonpayable",
      "type": "function"
    },
    {
      "inputs": [
        {
          "internalType": "address",
          "name": "_voterAddr",
          "type": "address"
        }
      ],
      "name": "verifyVoter",
      "outputs": [],
      "stateMutability": "nonpayable",
      "type": "function"
    },
    {
      "inputs": [
        {
          "internalType": "uint256",
          "name": "_electionId",
          "type": "uint256"
        },
        {
          "internalType": "uint256",
          "name": "_candidateId",
          "type": "uint256"
        }
      ],
      "name": "vote",
      "outputs": [],
      "stateMutability": "nonpayable",
      "type": "function"
    },
    {
      "inputs": [],
      "name": "voterCount",
      "outputs": [
        {
          "internalType": "uint256",
          "name": "",
          "type": "uint256"
        }
      ],
      "stateMutability": "view",
      "type": "function"
    },
    {
      "inputs": [
        {
          "internalType": "address",
          "name": "",
          "type": "address"
        }
      ],
      "name": "voters",
      "outputs": [
        {
          "internalType": "string",
          "name": "name",
          "type": "string"
        },
        {
          "internalType": "string",
          "name": "matricNo",
          "type": "string"
        },
        {
          "internalType": "address",
          "name": "wallet",
          "type": "address"
        },
        {
          "internalType": "bool",
          "name": "isVerified",
          "type": "bool"
        },
        {
          "internalType": "bool",
          "name": "hasVoted",
          "type": "bool"
        }
      ],
      "stateMutability": "view",
      "type": "function"
    }
  ],
  "bytecode": "0x608060405234801561001057600080fd5b50336000806101000a81548173ffffffffffffffffffffffffffffffffffffffff021916908373ffffffffffffffffffffffffffffffffffffffff160217905550614c28806100606000396000f3fe608060405234801561001057600080fd5b506004361061018e5760003560e01c80637fd5f268116100de578063a520d32211610097578063d4f50f9811610071578063d4f50f98146104c8578063ec46c754146104fc578063f851a44014610518578063fd11f97a146105365761018e565b8063a520d32214610460578063b384abef14610490578063cf4a6060146104ac5761018e565b80637fd5f2681461036f57806381a60c0d1461038d5780638a4c8847146103bd578063997d2830146103d95780639d710777146103f7578063a3ec138d1461042c5761018e565b80633ce3b25d1161014b5780634bd46448116101255780634bd46448146102d05780635e6fef0114610302578063740c47d4146103375780637ad36e84146103535761018e565b80633ce3b25d146102525780633e39a7a51461028257806342169e48146102b25761018e565b806309bd0950146101935780631750a3d0146101af57806335bbe70e146101cb57806336af08a5146101e957806338998e55146102055780633bb76ef614610236575b600080fd5b6101ad60048036038101906101a891906130cb565b610566565b005b6101c960048036038101906101c49190613274565b6106e2565b005b6101d36108e2565b6040516101e091906134b8565b60405180910390f35b61020360048036038101906101fe91906134da565b610bc2565b005b61021f600480360381019061021a919061358d565b610d80565b60405161022d9291906136ea565b60405180910390f35b610250600480360381019061024b919061371a565b610f98565b005b61026c600480360381019061026791906130cb565b611199565b6040516102799190613789565b60405180910390f35b61029c6004803603810190610297919061358d565b6111f2565b6040516102a991906137a4565b60405180910390f35b6102ba6113e0565b6040516102c791906137d5565b60405180910390f35b6102ea60048036038101906102e591906137f0565b6113e6565b6040516102f99392919061387a565b60405180910390f35b61031c6004803603810190610317919061358d565b611512565b60405161032e969594939291906138b8565b60405180910390f35b610351600480360381019061034c919061358d565b61165e565b005b61036d60048036038101906103689190613927565b61183d565b005b610377611a05565b6040516103849190613b18565b60405180910390f35b6103a760048036038101906103a2919061358d565b611c23565b6040516103b491906137a4565b60405180910390f35b6103d760048036038101906103d29190613b3a565b611e0b565b005b6103e161221e565b6040516103ee91906137d5565b60405180910390f35b610411600480360381019061040c919061358d565b612224565b604051610423969594939291906138b8565b60405180910390f35b610446600480360381019061044191906130cb565b6123e2565b604051610457959493929190613bc1565b60405180910390f35b61047a60048036038101906104759190613c22565b612562565b6040516104879190613c6b565b60405180910390f35b6104aa60048036038101906104a591906137f0565b6125ab565b005b6104c660048036038101906104c191906137f0565b6128ff565b005b6104e260048036038101906104dd91906130cb565b612b90565b6040516104f3959493929190613bc1565b60405180910390f35b6105166004803603810190610511919061358d565b612d57565b005b610520612edf565b60405161052d9190613c6b565b60405180910390f35b610550600480360381019061054b91906130cb565b612f03565b60405161055d9190613789565b60405180910390f35b60008054906101000a900473ffffffffffffffffffffffffffffffffffffffff1673ffffffffffffffffffffffffffffffffffffffff163373ffffffffffffffffffffffffffffffffffffffff16146105f4576040517f08c379a00000000000000000000000000000000000000000000000000000000081526004016105eb90613cf8565b60405180910390fd5b6000600460008373ffffffffffffffffffffffffffffffffffffffff1673ffffffffffffffffffffffffffffffffffffffff1681526020019081526020016000209050600081600101805461064890613d47565b90501161068a576040517f08c379a000000000000000000000000000000000000000000000000000000000815260040161068190613dc4565b60405180910390fd5b60018160020160146101000a81548160ff0219169083151502179055507f73d35f4b5dc2339683083dec639ba37f0f5592fc26de0e0603ac5ba2412cd004826040516106d69190613c6b565b60405180910390a15050565b60008054906101000a900473ffffffffffffffffffffffffffffffffffffffff1673ffffffffffffffffffffffffffffffffffffffff163373ffffffffffffffffffffffffffffffffffffffff1614610770576040517f08c379a000000000000000000000000000000000000000000000000000000000815260040161076790613cf8565b60405180910390fd5b8160008111801561078357506001548111155b6107c2576040517f08c379a00000000000000000000000000000000000000000000000000000000081526004016107b990613e30565b60405180910390fd5b6000825111610806576040517f08c379a00000000000000000000000000000000000000000000000000000000081526004016107fd90613e9c565b60405180910390fd5b600060036000858152602001908152602001600020905080600501600081548092919061083290613eeb565b919050555060405180606001604052808260050154815260200184815260200160008152508160060160008360050154815260200190815260200160002060008201518160000155602082015181600101908161088f91906140df565b50604082015181600201559050507fed8911b3df733b7d5f75724158e54478ea12e30f49c9d31b5261879f5b76586f848260050154856040516108d4939291906141b1565b60405180910390a150505050565b6060600060068054905067ffffffffffffffff81111561090557610904613149565b5b60405190808252806020026020018201604052801561093e57816020015b61092b612f5c565b8152602001906001900390816109235790505b50905060005b600680549050811015610bba576004600060068381548110610969576109686141ef565b5b9060005260206000200160009054906101000a900473ffffffffffffffffffffffffffffffffffffffff1673ffffffffffffffffffffffffffffffffffffffff1673ffffffffffffffffffffffffffffffffffffffff1681526020019081526020016000206040518060a00160405290816000820180546109e990613d47565b80601f0160208091040260200160405190810160405280929190818152602001828054610a1590613d47565b8015610a625780601f10610a3757610100808354040283529160200191610a62565b820191906000526020600020905b815481529060010190602001808311610a4557829003601f168201915b50505050508152602001600182018054610a7b90613d47565b80601f0160208091040260200160405190810160405280929190818152602001828054610aa790613d47565b8015610af45780601f10610ac957610100808354040283529160200191610af4565b820191906000526020600020905b815481529060010190602001808311610ad757829003601f168201915b505050505081526020016002820160009054906101000a900473ffffffffffffffffffffffffffffffffffffffff1673ffffffffffffffffffffffffffffffffffffffff1673ffffffffffffffffffffffffffffffffffffffff1681526020016002820160149054906101000a900460ff161515151581526020016002820160159054906101000a900460ff161515151581525050828281518110610b9c57610b9b6141ef565b5b60200260200101819052508080610bb290613eeb565b915050610944565b508091505090565b60008054906101000a900473ffffffffffffffffffffffffffffffffffffffff1673ffffffffffffffffffffffffffffffffffffffff163373ffffffffffffffffffffffffffffffffffffffff1614610c50576040517f08c379a0000000000000000000000000000000000000000000000000000000008152600401610c4790613cf8565b60405180910390fd5b84600081118015610c6357506001548111155b610ca2576040517f08c379a0000000000000000000000000000000000000000000000000000000008152600401610c9990613e30565b60405180910390fd5b600060036000888152602001908152602001600020905080600301544210610cff576040517f08c379a0000000000000000000000000000000000000000000000000000000008152600401610cf69061426a565b60405180910390fd5b838311610d41576040517f08c379a0000000000000000000000000000000000000000000000000000000008152600401610d38906142d6565b60405180910390fd5b85816001019081610d5291906140df565b5084816002019081610d6491906140df565b5083816003018190555082816004018190555050505050505050565b6060600082600081118015610d9757506001548111155b610dd6576040517f08c379a0000000000000000000000000000000000000000000000000000000008152600401610dcd90613e30565b60405180910390fd5b60006003600086815260200190815260200160002090506000816005015467ffffffffffffffff811115610e0d57610e0c613149565b5b604051908082528060200260200182016040528015610e4657816020015b610e33612fa5565b815260200190600190039081610e2b5790505b5090506000600190505b82600501548111610f5e5782600601600082815260200190815260200160002060405180606001604052908160008201548152602001600182018054610e9590613d47565b80601f0160208091040260200160405190810160405280929190818152602001828054610ec190613d47565b8015610f0e5780601f10610ee357610100808354040283529160200191610f0e565b820191906000526020600020905b815481529060010190602001808311610ef157829003601f168201915b5050505050815260200160028201548152505082600183610f2f91906142f6565b81518110610f4057610f3f6141ef565b5b60200260200101819052508080610f5690613eeb565b915050610e50565b50600082600301544210158015610f79575082600401544211155b80610f875750826004015442115b905081819550955050505050915091565b60008054906101000a900473ffffffffffffffffffffffffffffffffffffffff1673ffffffffffffffffffffffffffffffffffffffff163373ffffffffffffffffffffffffffffffffffffffff1614611026576040517f08c379a000000000000000000000000000000000000000000000000000000000815260040161101d90613cf8565b60405180910390fd5b8260008111801561103957506001548111155b611078576040517f08c379a000000000000000000000000000000000000000000000000000000000815260040161106f90613e30565b60405180910390fd5b60008251116110bc576040517f08c379a00000000000000000000000000000000000000000000000000000000081526004016110b390613e9c565b60405180910390fd5b600060036000868152602001908152602001600020905080600301544210611119576040517f08c379a00000000000000000000000000000000000000000000000000000000081526004016111109061439c565b60405180910390fd5b60008411801561112d575080600501548411155b61116c576040517f08c379a000000000000000000000000000000000000000000000000000000000815260040161116390614408565b60405180910390fd5b82816006016000868152602001908152602001600020600101908161119191906140df565b505050505050565b6000600460008373ffffffffffffffffffffffffffffffffffffffff1673ffffffffffffffffffffffffffffffffffffffff16815260200190815260200160002060020160149054906101000a900460ff169050919050565b60608160008111801561120757506001548111155b611246576040517f08c379a000000000000000000000000000000000000000000000000000000000815260040161123d90613e30565b60405180910390fd5b60006003600085815260200190815260200160002090506000816005015467ffffffffffffffff81111561127d5761127c613149565b5b6040519080825280602002602001820160405280156112b657816020015b6112a3612fa5565b81526020019060019003908161129b5790505b5090506000600190505b826005015481116113d45760008360060160008381526020019081526020016000209050806040518060600160405290816000820154815260200160018201805461130a90613d47565b80601f016020809104026020016040519081016040528092919081815260200182805461133690613d47565b80156113835780601f1061135857610100808354040283529160200191611383565b820191906000526020600020905b81548152906001019060200180831161136657829003601f168201915b50505050508152602001600282015481525050836001846113a491906142f6565b815181106113b5576113b46141ef565b5b60200260200101819052505080806113cc90613eeb565b9150506112c0565b50809350505050919050565b60025481565b600060606000846000811180156113ff57506001548111155b61143e576040517f08c379a000000000000000000000000000000000000000000000000000000000815260040161143590613e30565b60405180910390fd5b60006003600088815260200190815260200160002060060160008781526020019081526020016000209050806000015481600101826002015481805461148390613d47565b80601f01602080910402602001604051908101604052809291908181526020018280546114af90613d47565b80156114fc5780601f106114d1576101008083540402835291602001916114fc565b820191906000526020600020905b8154815290600101906020018083116114df57829003601f168201915b5050505050915094509450945050509250925092565b600360205280600052604060002060009150905080600001549080600101805461153b90613d47565b80601f016020809104026020016040519081016040528092919081815260200182805461156790613d47565b80156115b45780601f10611589576101008083540402835291602001916115b4565b820191906000526020600020905b81548152906001019060200180831161159757829003601f168201915b5050505050908060020180546115c990613d47565b80601f01602080910402602001604051908101604052809291908181526020018280546115f590613d47565b80156116425780601f1061161757610100808354040283529160200191611642565b820191906000526020600020905b81548152906001019060200180831161162557829003601f168201915b5050505050908060030154908060040154908060050154905086565b60008054906101000a900473ffffffffffffffffffffffffffffffffffffffff1673ffffffffffffffffffffffffffffffffffffffff163373ffffffffffffffffffffffffffffffffffffffff16146116ec576040517f08c379a00000000000000000000000000000000000000000000000000000000081526004016116e390613cf8565b60405180910390fd5b806000811180156116ff57506001548111155b61173e576040517f08c379a000000000000000000000000000000000000000000000000000000000815260040161173590613e30565b60405180910390fd5b60006003600084815260200190815260200160002090508060030154421061179b576040517f08c379a00000000000000000000000000000000000000000000000000000000081526004016117929061426a565b60405180910390fd5b60008160050154146117e2576040517f08c379a00000000000000000000000000000000000000000000000000000000081526004016117d990614474565b60405180910390fd5b6003600084815260200190815260200160002060008082016000905560018201600061180e9190612fc6565b60028201600061181e9190612fc6565b6003820160009055600482016000905560058201600090555050505050565b60008054906101000a900473ffffffffffffffffffffffffffffffffffffffff1673ffffffffffffffffffffffffffffffffffffffff163373ffffffffffffffffffffffffffffffffffffffff16146118cb576040517f08c379a00000000000000000000000000000000000000000000000000000000081526004016118c290613cf8565b60405180910390fd5b600084511161190f576040517f08c379a0000000000000000000000000000000000000000000000000000000008152600401611906906144e0565b60405180910390fd5b818111611951576040517f08c379a0000000000000000000000000000000000000000000000000000000008152600401611948906142d6565b60405180910390fd5b6001600081548092919061196490613eeb565b91905055506000600360006001548152602001908152602001600020905060015481600001819055508481600101908161199e91906140df565b50838160020190816119b091906140df565b508281600301819055508181600401819055507f52be7c4e77b4de76b7607d621492061fe13b58597e72dfb5e51ab8f6187ed141600154866040516119f6929190614500565b60405180910390a15050505050565b6060600060015467ffffffffffffffff811115611a2557611a24613149565b5b604051908082528060200260200182016040528015611a5e57816020015b611a4b613006565b815260200190600190039081611a435790505b5090506000600190505b6001548111611c1b5760006003600083815260200190815260200160002090506040518060c0016040528082600001548152602001826001018054611aac90613d47565b80601f0160208091040260200160405190810160405280929190818152602001828054611ad890613d47565b8015611b255780601f10611afa57610100808354040283529160200191611b25565b820191906000526020600020905b815481529060010190602001808311611b0857829003601f168201915b50505050508152602001826002018054611b3e90613d47565b80601f0160208091040260200160405190810160405280929190818152602001828054611b6a90613d47565b8015611bb75780601f10611b8c57610100808354040283529160200191611bb7565b820191906000526020600020905b815481529060010190602001808311611b9a57829003601f168201915b505050505081526020018260030154815260200182600401548152602001826005015481525083600184611beb91906142f6565b81518110611bfc57611bfb6141ef565b5b6020026020010181905250508080611c1390613eeb565b915050611a68565b508091505090565b606081600081118015611c3857506001548111155b611c77576040517f08c379a0000000000000000000000000000000000000000000000000000000008152600401611c6e90613e30565b60405180910390fd5b60006003600085815260200190815260200160002090506000816005015467ffffffffffffffff811115611cae57611cad613149565b5b604051908082528060200260200182016040528015611ce757816020015b611cd4612fa5565b815260200190600190039081611ccc5790505b5090506000600190505b82600501548111611dff5782600601600082815260200190815260200160002060405180606001604052908160008201548152602001600182018054611d3690613d47565b80601f0160208091040260200160405190810160405280929190818152602001828054611d6290613d47565b8015611daf5780601f10611d8457610100808354040283529160200191611daf565b820191906000526020600020905b815481529060010190602001808311611d9257829003601f168201915b5050505050815260200160028201548152505082600183611dd091906142f6565b81518110611de157611de06141ef565b5b60200260200101819052508080611df790613eeb565b915050611cf1565b50809350505050919050565b6000825111611e4f576040517f08c379a0000000000000000000000000000000000000000000000000000000008152600401611e469061457c565b60405180910390fd5b6000815111611e93576040517f08c379a0000000000000000000000000000000000000000000000000000000008152600401611e8a906145e8565b60405180910390fd5b600073ffffffffffffffffffffffffffffffffffffffff16600582604051611ebb9190614644565b908152602001604051809103902060009054906101000a900473ffffffffffffffffffffffffffffffffffffffff1673ffffffffffffffffffffffffffffffffffffffff1614611f40576040517f08c379a0000000000000000000000000000000000000000000000000000000008152600401611f37906146a7565b60405180910390fd5b6000600460003373ffffffffffffffffffffffffffffffffffffffff1673ffffffffffffffffffffffffffffffffffffffff1681526020019081526020016000206001018054611f8f90613d47565b905014611fd1576040517f08c379a0000000000000000000000000000000000000000000000000000000008152600401611fc890614713565b60405180910390fd5b6040518060a001604052808381526020018281526020013373ffffffffffffffffffffffffffffffffffffffff16815260200160001515815260200160001515815250600460003373ffffffffffffffffffffffffffffffffffffffff1673ffffffffffffffffffffffffffffffffffffffff168152602001908152602001600020600082015181600001908161206891906140df565b50602082015181600101908161207e91906140df565b5060408201518160020160006101000a81548173ffffffffffffffffffffffffffffffffffffffff021916908373ffffffffffffffffffffffffffffffffffffffff16021790555060608201518160020160146101000a81548160ff02191690831515021790555060808201518160020160156101000a81548160ff0219169083151502179055509050503360058260405161211a9190614644565b908152602001604051809103902060006101000a81548173ffffffffffffffffffffffffffffffffffffffff021916908373ffffffffffffffffffffffffffffffffffffffff1602179055506006339080600181540180825580915050600190039060005260206000200160009091909190916101000a81548173ffffffffffffffffffffffffffffffffffffffff021916908373ffffffffffffffffffffffffffffffffffffffff160217905550600260008154809291906121dc90613eeb565b91905055507fffeb7702be7dcd8fee170d954b70afb9a7c78f7f5cff232d037e7b9d8243356a3382604051612212929190614733565b60405180910390a15050565b60015481565b600060608060008060008660008111801561224157506001548111155b612280576040517f08c379a000000000000000000000000000000000000000000000000000000000815260040161227790613e30565b60405180910390fd5b6000600360008a81526020019081526020016000209050806000015481600101826002018360030154846004015485600501548480546122bf90613d47565b80601f01602080910402602001604051908101604052809291908181526020018280546122eb90613d47565b80156123385780601f1061230d57610100808354040283529160200191612338565b820191906000526020600020905b81548152906001019060200180831161231b57829003601f168201915b5050505050945083805461234b90613d47565b80601f016020809104026020016040519081016040528092919081815260200182805461237790613d47565b80156123c45780601f10612399576101008083540402835291602001916123c4565b820191906000526020600020905b8154815290600101906020018083116123a757829003601f168201915b50505050509350975097509750975097509750505091939550919395565b600460205280600052604060002060009150905080600001805461240590613d47565b80601f016020809104026020016040519081016040528092919081815260200182805461243190613d47565b801561247e5780601f106124535761010080835404028352916020019161247e565b820191906000526020600020905b81548152906001019060200180831161246157829003601f168201915b50505050509080600101805461249390613d47565b80601f01602080910402602001604051908101604052809291908181526020018280546124bf90613d47565b801561250c5780601f106124e15761010080835404028352916020019161250c565b820191906000526020600020905b8154815290600101906020018083116124ef57829003601f168201915b5050505050908060020160009054906101000a900473ffffffffffffffffffffffffffffffffffffffff16908060020160149054906101000a900460ff16908060020160159054906101000a900460ff16905085565b6005818051602081018201805184825260208301602085012081835280955050505050506000915054906101000a900473ffffffffffffffffffffffffffffffffffffffff1681565b816000811180156125be57506001548111155b6125fd576040517f08c379a00000000000000000000000000000000000000000000000000000000081526004016125f490613e30565b60405180910390fd5b60006003600085815260200190815260200160002090506000600460003373ffffffffffffffffffffffffffffffffffffffff1673ffffffffffffffffffffffffffffffffffffffff16815260200190815260200160002090508060020160149054906101000a900460ff166126a8576040517f08c379a000000000000000000000000000000000000000000000000000000000815260040161269f906147af565b60405180910390fd5b81600301544210156126ef576040517f08c379a00000000000000000000000000000000000000000000000000000000081526004016126e69061481b565b60405180910390fd5b8160040154421115612736576040517f08c379a000000000000000000000000000000000000000000000000000000000815260040161272d90614887565b60405180910390fd5b8160070160003373ffffffffffffffffffffffffffffffffffffffff1673ffffffffffffffffffffffffffffffffffffffff16815260200190815260200160002060009054906101000a900460ff16156127c5576040517f08c379a00000000000000000000000000000000000000000000000000000000081526004016127bc90614919565b60405180910390fd5b6000841180156127d9575081600501548411155b612818576040517f08c379a000000000000000000000000000000000000000000000000000000000815260040161280f90614408565b60405180910390fd5b816006016000858152602001908152602001600020600201600081548092919061284190613eeb565b919050555060018260070160003373ffffffffffffffffffffffffffffffffffffffff1673ffffffffffffffffffffffffffffffffffffffff16815260200190815260200160002060006101000a81548160ff02191690831515021790555060018160020160156101000a81548160ff0219169083151502179055507fe7ee74ca1f4bb1b82b14f87794c45b3e59c39e372b862fb97a6316b43355b69e8533866040516128f093929190614939565b60405180910390a15050505050565b60008054906101000a900473ffffffffffffffffffffffffffffffffffffffff1673ffffffffffffffffffffffffffffffffffffffff163373ffffffffffffffffffffffffffffffffffffffff161461298d576040517f08c379a000000000000000000000000000000000000000000000000000000000815260040161298490613cf8565b60405180910390fd5b816000811180156129a057506001548111155b6129df576040517f08c379a00000000000000000000000000000000000000000000000000000000081526004016129d690613e30565b60405180910390fd5b600060036000858152602001908152602001600020905080600301544210612a3c576040517f08c379a0000000000000000000000000000000000000000000000000000000008152600401612a33906149e2565b60405180910390fd5b600083118015612a50575080600501548311155b612a8f576040517f08c379a0000000000000000000000000000000000000000000000000000000008152600401612a8690614408565b60405180910390fd5b60008390505b8160050154811015612b3357816006016000600183612ab49190614a02565b81526020019081526020016000208260060160008381526020019081526020016000206000820154816000015560018201816001019081612af59190614a4c565b506002820154816002015590505080826006016000838152602001908152602001600020600001819055508080612b2b90613eeb565b915050612a95565b5080600601600082600501548152602001908152602001600020600080820160009055600182016000612b669190612fc6565b60028201600090555050806005016000815480929190612b8590614b34565b919050555050505050565b606080600080600080600460008873ffffffffffffffffffffffffffffffffffffffff1673ffffffffffffffffffffffffffffffffffffffff168152602001908152602001600020905080600001816001018260020160009054906101000a900473ffffffffffffffffffffffffffffffffffffffff168360020160149054906101000a900460ff168460020160159054906101000a900460ff16848054612c3790613d47565b80601f0160208091040260200160405190810160405280929190818152602001828054612c6390613d47565b8015612cb05780601f10612c8557610100808354040283529160200191612cb0565b820191906000526020600020905b815481529060010190602001808311612c9357829003601f168201915b50505050509450838054612cc390613d47565b80601f0160208091040260200160405190810160405280929190818152602001828054612cef90613d47565b8015612d3c5780601f10612d1157610100808354040283529160200191612d3c565b820191906000526020600020905b815481529060010190602001808311612d1f57829003601f168201915b50505050509350955095509550955095505091939590929450565b60008054906101000a900473ffffffffffffffffffffffffffffffffffffffff1673ffffffffffffffffffffffffffffffffffffffff163373ffffffffffffffffffffffffffffffffffffffff1614612de5576040517f08c379a0000000000000000000000000000000000000000000000000000000008152600401612ddc90613cf8565b60405180910390fd5b80600081118015612df857506001548111155b612e37576040517f08c379a0000000000000000000000000000000000000000000000000000000008152600401612e2e90613e30565b60405180910390fd5b600060036000848152602001908152602001600020905080600401544210612e94576040517f08c379a0000000000000000000000000000000000000000000000000000000008152600401612e8b90614ba9565b60405180910390fd5b4281600401819055507f32e2c12037f9600b91a766ce53eab6909f3bdb865851cd9a8c7fafbdf249a9ce838260040154604051612ed2929190614bc9565b60405180910390a1505050565b60008054906101000a900473ffffffffffffffffffffffffffffffffffffffff1681565b6000600460008373ffffffffffffffffffffffffffffffffffffffff1673ffffffffffffffffffffffffffffffffffffffff16815260200190815260200160002060020160159054906101000a900460ff169050919050565b6040518060a001604052806060815260200160608152602001600073ffffffffffffffffffffffffffffffffffffffff1681526020016000151581526020016000151581525090565b60405180606001604052806000815260200160608152602001600081525090565b508054612fd290613d47565b6000825580601f10612fe45750613003565b601f016020900490600052602060002090810190613002919061303c565b5b50565b6040518060c001604052806000815260200160608152602001606081526020016000815260200160008152602001600081525090565b5b8082111561305557600081600090555060010161303d565b5090565b6000604051905090565b600080fd5b600080fd5b600073ffffffffffffffffffffffffffffffffffffffff82169050919050565b60006130988261306d565b9050919050565b6130a88161308d565b81146130b357600080fd5b50565b6000813590506130c58161309f565b92915050565b6000602082840312156130e1576130e0613063565b5b60006130ef848285016130b6565b91505092915050565b6000819050919050565b61310b816130f8565b811461311657600080fd5b50565b60008135905061312881613102565b92915050565b600080fd5b600080fd5b6000601f19601f8301169050919050565b7f4e487b7100000000000000000000000000000000000000000000000000000000600052604160045260246000fd5b61318182613138565b810181811067ffffffffffffffff821117156131a05761319f613149565b5b80604052505050565b60006131b3613059565b90506131bf8282613178565b919050565b600067ffffffffffffffff8211156131df576131de613149565b5b6131e882613138565b9050602081019050919050565b82818337600083830152505050565b6000613217613212846131c4565b6131a9565b90508281526020810184848401111561323357613232613133565b5b61323e8482856131f5565b509392505050565b600082601f83011261325b5761325a61312e565b5b813561326b848260208601613204565b91505092915050565b6000806040838503121561328b5761328a613063565b5b600061329985828601613119565b925050602083013567ffffffffffffffff8111156132ba576132b9613068565b5b6132c685828601613246565b9150509250929050565b600081519050919050565b600082825260208201905092915050565b6000819050602082019050919050565b600081519050919050565b600082825260208201905092915050565b60005b8381101561333657808201518184015260208101905061331b565b60008484015250505050565b600061334d826132fc565b6133578185613307565b9350613367818560208601613318565b61337081613138565b840191505092915050565b6133848161308d565b82525050565b60008115159050919050565b61339f8161338a565b82525050565b600060a08301600083015184820360008601526133c28282613342565b915050602083015184820360208601526133dc8282613342565b91505060408301516133f1604086018261337b565b5060608301516134046060860182613396565b5060808301516134176080860182613396565b508091505092915050565b600061342e83836133a5565b905092915050565b6000602082019050919050565b600061344e826132d0565b61345881856132db565b93508360208202850161346a856132ec565b8060005b858110156134a657848403895281516134878582613422565b945061349283613436565b925060208a0199505060018101905061346e565b50829750879550505050505092915050565b600060208201905081810360008301526134d28184613443565b905092915050565b600080600080600060a086880312156134f6576134f5613063565b5b600061350488828901613119565b955050602086013567ffffffffffffffff81111561352557613524613068565b5b61353188828901613246565b945050604086013567ffffffffffffffff81111561355257613551613068565b5b61355e88828901613246565b935050606061356f88828901613119565b925050608061358088828901613119565b9150509295509295909350565b6000602082840312156135a3576135a2613063565b5b60006135b184828501613119565b91505092915050565b600081519050919050565b600082825260208201905092915050565b6000819050602082019050919050565b6135ef816130f8565b82525050565b600060608301600083015161360d60008601826135e6565b50602083015184820360208601526136258282613342565b915050604083015161363a60408601826135e6565b508091505092915050565b600061365183836135f5565b905092915050565b6000602082019050919050565b6000613671826135ba565b61367b81856135c5565b93508360208202850161368d856135d6565b8060005b858110156136c957848403895281516136aa8582613645565b94506136b583613659565b925060208a01995050600181019050613691565b50829750879550505050505092915050565b6136e48161338a565b82525050565b600060408201905081810360008301526137048185613666565b905061371360208301846136db565b9392505050565b60008060006060848603121561373357613732613063565b5b600061374186828701613119565b935050602061375286828701613119565b925050604084013567ffffffffffffffff81111561377357613772613068565b5b61377f86828701613246565b9150509250925092565b600060208201905061379e60008301846136db565b92915050565b600060208201905081810360008301526137be8184613666565b905092915050565b6137cf816130f8565b82525050565b60006020820190506137ea60008301846137c6565b92915050565b6000806040838503121561380757613806613063565b5b600061381585828601613119565b925050602061382685828601613119565b9150509250929050565b600082825260208201905092915050565b600061384c826132fc565b6138568185613830565b9350613866818560208601613318565b61386f81613138565b840191505092915050565b600060608201905061388f60008301866137c6565b81810360208301526138a18185613841565b90506138b060408301846137c6565b949350505050565b600060c0820190506138cd60008301896137c6565b81810360208301526138df8188613841565b905081810360408301526138f38187613841565b905061390260608301866137c6565b61390f60808301856137c6565b61391c60a08301846137c6565b979650505050505050565b6000806000806080858703121561394157613940613063565b5b600085013567ffffffffffffffff81111561395f5761395e613068565b5b61396b87828801613246565b945050602085013567ffffffffffffffff81111561398c5761398b613068565b5b61399887828801613246565b93505060406139a987828801613119565b92505060606139ba87828801613119565b91505092959194509250565b600081519050919050565b600082825260208201905092915050565b6000819050602082019050919050565b600060c083016000830151613a0a60008601826135e6565b5060208301518482036020860152613a228282613342565b91505060408301518482036040860152613a3c8282613342565b9150506060830151613a5160608601826135e6565b506080830151613a6460808601826135e6565b5060a0830151613a7760a08601826135e6565b508091505092915050565b6000613a8e83836139f2565b905092915050565b6000602082019050919050565b6000613aae826139c6565b613ab881856139d1565b935083602082028501613aca856139e2565b8060005b85811015613b065784840389528151613ae78582613a82565b9450613af283613a96565b925060208a01995050600181019050613ace565b50829750879550505050505092915050565b60006020820190508181036000830152613b328184613aa3565b905092915050565b60008060408385031215613b5157613b50613063565b5b600083013567ffffffffffffffff811115613b6f57613b6e613068565b5b613b7b85828601613246565b925050602083013567ffffffffffffffff811115613b9c57613b9b613068565b5b613ba885828601613246565b9150509250929050565b613bbb8161308d565b82525050565b600060a0820190508181036000830152613bdb8188613841565b90508181036020830152613bef8187613841565b9050613bfe6040830186613bb2565b613c0b60608301856136db565b613c1860808301846136db565b9695505050505050565b600060208284031215613c3857613c37613063565b5b600082013567ffffffffffffffff811115613c5657613c55613068565b5b613c6284828501613246565b91505092915050565b6000602082019050613c806000830184613bb2565b92915050565b7f4f6e6c7920617574686f72697a656420757365722063616e20706572666f726d60008201527f207468697320616374696f6e0000000000000000000000000000000000000000602082015250565b6000613ce2602c83613830565b9150613ced82613c86565b604082019050919050565b60006020820190508181036000830152613d1181613cd5565b9050919050565b7f4e487b7100000000000000000000000000000000000000000000000000000000600052602260045260246000fd5b60006002820490506001821680613d5f57607f821691505b602082108103613d7257613d71613d18565b5b50919050565b7f566f746572206e6f742072656769737465726564000000000000000000000000600082015250565b6000613dae601483613830565b9150613db982613d78565b602082019050919050565b60006020820190508181036000830152613ddd81613da1565b9050919050565b7f456c656374696f6e20646f6573206e6f74206578697374000000000000000000600082015250565b6000613e1a601783613830565b9150613e2582613de4565b602082019050919050565b60006020820190508181036000830152613e4981613e0d565b9050919050565b7f43616e646964617465206e616d65207265717569726564000000000000000000600082015250565b6000613e86601783613830565b9150613e9182613e50565b602082019050919050565b60006020820190508181036000830152613eb581613e79565b9050919050565b7f4e487b7100000000000000000000000000000000000000000000000000000000600052601160045260246000fd5b6000613ef6826130f8565b91507fffffffffffffffffffffffffffffffffffffffffffffffffffffffffffffffff8203613f2857613f27613ebc565b5b600182019050919050565b60008190508160005260206000209050919050565b60006020601f8301049050919050565b600082821b905092915050565b600060088302613f957fffffffffffffffffffffffffffffffffffffffffffffffffffffffffffffffff82613f58565b613f9f8683613f58565b95508019841693508086168417925050509392505050565b6000819050919050565b6000613fdc613fd7613fd2846130f8565b613fb7565b6130f8565b9050919050565b6000819050919050565b613ff683613fc1565b61400a61400282613fe3565b848454613f65565b825550505050565b600090565b61401f614012565b61402a818484613fed565b505050565b5b8181101561404e57614043600082614017565b600181019050614030565b5050565b601f8211156140935761406481613f33565b61406d84613f48565b8101602085101561407c578190505b61409061408885613f48565b83018261402f565b50505b505050565b600082821c905092915050565b60006140b660001984600802614098565b1980831691505092915050565b60006140cf83836140a5565b9150826002028217905092915050565b6140e8826132fc565b67ffffffffffffffff81111561410157614100613149565b5b61410b8254613d47565b614116828285614052565b600060209050601f8311600181146141495760008415614137578287015190505b61414185826140c3565b8655506141a9565b601f19841661415786613f33565b60005b8281101561417f5784890151825560018201915060208501945060208101905061415a565b8683101561419c5784890151614198601f8916826140a5565b8355505b6001600288020188555050505b505050505050565b60006060820190506141c660008301866137c6565b6141d360208301856137c6565b81810360408301526141e58184613841565b9050949350505050565b7f4e487b7100000000000000000000000000000000000000000000000000000000600052603260045260246000fd5b7f456c656374696f6e20616c726561647920737461727465640000000000000000600082015250565b6000614254601883613830565b915061425f8261421e565b602082019050919050565b6000602082019050818103600083015261428381614247565b9050919050565b7f496e76616c69642074696d652072616e67650000000000000000000000000000600082015250565b60006142c0601283613830565b91506142cb8261428a565b602082019050919050565b600060208201905081810360008301526142ef816142b3565b9050919050565b6000614301826130f8565b915061430c836130f8565b925082820390508181111561432457614323613ebc565b5b92915050565b7f43616e6e6f74206564697420656c656374696f6e20616c72656164792073746160008201527f7274656400000000000000000000000000000000000000000000000000000000602082015250565b6000614386602483613830565b91506143918261432a565b604082019050919050565b600060208201905081810360008301526143b581614379565b9050919050565b7f496e76616c69642063616e646964617465000000000000000000000000000000600082015250565b60006143f2601183613830565b91506143fd826143bc565b602082019050919050565b60006020820190508181036000830152614421816143e5565b9050919050565b7f456c656374696f6e20616c7265616479206861732063616e6469646174657300600082015250565b600061445e601f83613830565b915061446982614428565b602082019050919050565b6000602082019050818103600083015261448d81614451565b9050919050565b7f5469746c65207265717569726564000000000000000000000000000000000000600082015250565b60006144ca600e83613830565b91506144d582614494565b602082019050919050565b600060208201905081810360008301526144f9816144bd565b9050919050565b600060408201905061451560008301856137c6565b81810360208301526145278184613841565b90509392505050565b7f4e616d6520726571756972656400000000000000000000000000000000000000600082015250565b6000614566600d83613830565b915061457182614530565b602082019050919050565b6000602082019050818103600083015261459581614559565b9050919050565b7f4d6174726963206e756d62657220726571756972656400000000000000000000600082015250565b60006145d2601683613830565b91506145dd8261459c565b602082019050919050565b60006020820190508181036000830152614601816145c5565b9050919050565b600081905092915050565b600061461e826132fc565b6146288185614608565b9350614638818560208601613318565b80840191505092915050565b60006146508284614613565b915081905092915050565b7f4d6174726963206e756d62657220616c72656164792072656769737465726564600082015250565b6000614691602083613830565b915061469c8261465b565b602082019050919050565b600060208201905081810360008301526146c081614684565b9050919050565b7f416c726561647920726567697374657265640000000000000000000000000000600082015250565b60006146fd601283613830565b9150614708826146c7565b602082019050919050565b6000602082019050818103600083015261472c816146f0565b9050919050565b60006040820190506147486000830185613bb2565b818103602083015261475a8184613841565b90509392505050565b7f566f746572206e6f742076657269666965640000000000000000000000000000600082015250565b6000614799601283613830565b91506147a482614763565b602082019050919050565b600060208201905081810360008301526147c88161478c565b9050919050565b7f456c656374696f6e20686173206e6f7420737461727465640000000000000000600082015250565b6000614805601883613830565b9150614810826147cf565b602082019050919050565b60006020820190508181036000830152614834816147f8565b9050919050565b7f456c656374696f6e2068617320656e6465640000000000000000000000000000600082015250565b6000614871601283613830565b915061487c8261483b565b602082019050919050565b600060208201905081810360008301526148a081614864565b9050919050565b7f596f7520616c726561647920766f74656420696e207468697320656c6563746960008201527f6f6e000000000000000000000000000000000000000000000000000000000000602082015250565b6000614903602283613830565b915061490e826148a7565b604082019050919050565b60006020820190508181036000830152614932816148f6565b9050919050565b600060608201905061494e60008301866137c6565b61495b6020830185613bb2565b61496860408301846137c6565b949350505050565b7f43616e6e6f742064656c65746520656c656374696f6e20616c7265616479207360008201527f7461727465640000000000000000000000000000000000000000000000000000602082015250565b60006149cc602683613830565b91506149d782614970565b604082019050919050565b600060208201905081810360008301526149fb816149bf565b9050919050565b6000614a0d826130f8565b9150614a18836130f8565b9250828201905080821115614a3057614a2f613ebc565b5b92915050565b600081549050614a4581613d47565b9050919050565b818103614a5a575050614b32565b614a6382614a36565b67ffffffffffffffff811115614a7c57614a7b613149565b5b614a868254613d47565b614a91828285614052565b6000601f831160018114614ac05760008415614aae578287015490505b614ab885826140c3565b865550614b2b565b601f198416614ace87613f33565b9650614ad986613f33565b60005b82811015614b0157848901548255600182019150600185019450602081019050614adc565b86831015614b1e5784890154614b1a601f8916826140a5565b8355505b6001600288020188555050505b5050505050505b565b6000614b3f826130f8565b915060008203614b5257614b51613ebc565b5b600182039050919050565b7f456c656374696f6e20616c726561647920656e64656400000000000000000000600082015250565b6000614b93601683613830565b9150614b9e82614b5d565b602082019050919050565b60006020820190508181036000830152614bc281614b86565b9050919050565b6000604082019050614bde60008301856137c6565b614beb60208301846137c6565b939250505056fea2646970667358221220f47b0c5414883f75d869547d07d8f52f1ed54313c6856ee54a073319a906ccb964736f6c63430008130033",
  "linkReferences": {},
  "deployedLinkReferences": {}
}