{
  "_format": "hh-sol-artifact-1",
  "contractName": "ElectionManager",
  "sourceName": "contracts/ElectionManager.sol",
  "abi": [
    {
      "inputs": [],
      "stateMutability": "nonpayable",
      "type": "constructor"
    },
    {
      "anonymous": false,
      "inputs": [
        {
          "indexed": false,
          "internalType": "uint256",
          "name": "electionId",
          "type": "uint256"
        },
        {
          "indexed": false,
          "internalType": "uint256",
          "name": "candidateId",
          "type": "uint256"
        },
        {
          "indexed": false,
          "internalType": "string",
          "name": "name",
          "type": "string"
        }
      ],
      "name": "CandidateAdded",
      "type": "event"
    },
    {
      "anonymous": false,
      "inputs": [
        {
          "indexed": false,
          "internalType": "uint256",
          "name": "electionId",
          "type": "uint256"
        },
        {
          "indexed": false,
          "internalType": "string",
          "name": "title",
          "type": "string"
        }
      ],
      "name": "ElectionCreated",
      "type": "event"
    },
    {
      "anonymous": false,
      "inputs": [
        {
          "indexed": false,
          "internalType": "uint256",
          "name": "electionId",
          "type": "uint256"
        },
        {
          "indexed": false,
          "internalType": "uint256",
          "name": "endTime",
          "type": "uint256"
        }
      ],
      "name": "ElectionEnded",
      "type": "event"
    },
    {
      "anonymous": false,
      "inputs": [
        {
          "indexed": false,
          "internalType": "uint256",
          "name": "electionId",
          "type": "uint256"
        },
        {
          "indexed": false,
          "internalType": "address",
          "name": "voter",
          "type": "address"
        },
        {
          "indexed": false,
          "internalType": "uint256",
          "name": "candidateId",
          "type": "uint256"
        }
      ],
      "name": "VoteCasted",
      "type": "event"
    },
    {
      "anonymous": false,
      "inputs": [
        {
          "indexed": false,
          "internalType": "address",
          "name": "voter",
          "type": "address"
        },
        {
          "indexed": false,
          "internalType": "string",
          "name": "matricNo",
          "type": "string"
        }
      ],
      "name": "VoterRegistered",
      "type": "event"
    },
    {
      "anonymous": false,
      "inputs": [
        {
          "indexed": false,
          "internalType": "address",
          "name": "voter",
          "type": "address"
        }
      ],
      "name": "VoterVerified",
      "type": "event"
    },
    {
      "inputs": [
        {
          "internalType": "uint256",
          "name": "_electionId",
          "type": "uint256"
        },
        {
          "internalType": "string",
          "name": "_name",
          "type": "string"
        }
      ],
      "name": "addCandidate",
      "outputs": [],
      "stateMutability": "nonpayable",
      "type": "function"
    },
    {
      "inputs": [],
      "name": "admin",
      "outputs": [
        {
          "internalType": "address",
          "name": "",
          "type": "address"
        }
      ],
      "stateMutability": "view",
      "type": "function"
    },
    {
      "inputs": [
        {
          "internalType": "string",
          "name": "_title",
          "type": "string"
        },
        {
          "internalType": "string",
          "name": "_description",
          "type": "string"
        },
        {
          "internalType": "uint256",
          "name": "_startTime",
          "type": "uint256"
        },
        {
          "internalType": "uint256",
          "name": "_endTime",
          "type": "uint256"
        }
      ],
      "name": "createElection",
      "outputs": [],
      "stateMutability": "nonpayable",
      "type": "function"
    },
    {
      "inputs": [],
      "name": "electionCount",
      "outputs": [
        {
          "internalType": "uint256",
          "name": "",
          "type": "uint256"
        }
      ],
      "stateMutability": "view",
      "type": "function"
    },
    {
      "inputs": [
        {
          "internalType": "uint256",
          "name": "",
          "type": "uint256"
        }
      ],
      "name": "elections",
      "outputs": [
        {
          "internalType": "uint256",
          "name": "id",
          "type": "uint256"
        },
        {
          "internalType": "string",
          "name": "title",
          "type": "string"
        },
        {
          "internalType": "string",
          "name": "description",
          "type": "string"
        },
        {
          "internalType": "uint256",
          "name": "startTime",
          "type": "uint256"
        },
        {
          "internalType": "uint256",
          "name": "endTime",
          "type": "uint256"
        },
        {
          "internalType": "uint256",
          "name": "candidateCount",
          "type": "uint256"
        }
      ],
      "stateMutability": "view",
      "type": "function"
    },
    {
      "inputs": [
        {
          "internalType": "uint256",
          "name": "_electionId",
          "type": "uint256"
        }
      ],
      "name": "endElectionEarly",
      "outputs": [],
      "stateMutability": "nonpayable",
      "type": "function"
    },
    {
      "inputs": [],
      "name": "getAllElections",
      "outputs": [
        {
          "components": [
            {
              "internalType": "uint256",
              "name": "id",
              "type": "uint256"
            },
            {
              "internalType": "string",
              "name": "title",
              "type": "string"
            },
            {
              "internalType": "string",
              "name": "description",
              "type": "string"
            },
            {
              "internalType": "uint256",
              "name": "startTime",
              "type": "uint256"
            },
            {
              "internalType": "uint256",
              "name": "endTime",
              "type": "uint256"
            },
            {
              "internalType": "uint256",
              "name": "candidateCount",
              "type": "uint256"
            }
          ],
          "internalType": "struct ElectionManager.ElectionSummary[]",
          "name": "",
          "type": "tuple[]"
        }
      ],
      "stateMutability": "view",
      "type": "function"
    },
    {
      "inputs": [],
      "name": "getAllVoters",
      "outputs": [
        {
          "components": [
            {
              "internalType": "string",
              "name": "name",
              "type": "string"
            },
            {
              "internalType": "string",
              "name": "matricNo",
              "type": "string"
            },
            {
              "internalType": "address",
              "name": "wallet",
              "type": "address"
            },
            {
              "internalType": "bool",
              "name": "isVerified",
              "type": "bool"
            },
            {
              "internalType": "bool",
              "name": "hasVoted",
              "type": "bool"
            }
          ],
          "internalType": "struct ElectionManager.Voter[]",
          "name": "",
          "type": "tuple[]"
        }
      ],
      "stateMutability": "view",
      "type": "function"
    },
    {
      "inputs": [
        {
          "internalType": "uint256",
          "name": "_electionId",
          "type": "uint256"
        },
        {
          "internalType": "uint256",
          "name": "_candidateId",
          "type": "uint256"
        }
      ],
      "name": "getCandidate",
      "outputs": [
        {
          "internalType": "uint256",
          "name": "",
          "type": "uint256"
        },
        {
          "internalType": "string",
          "name": "",
          "type": "string"
        },
        {
          "internalType": "uint256",
          "name": "",
          "type": "uint256"
        }
      ],
      "stateMutability": "view",
      "type": "function"
    },
    {
      "inputs": [
        {
          "internalType": "uint256",
          "name": "_electionId",
          "type": "uint256"
        }
      ],
      "name": "getCandidates",
      "outputs": [
        {
          "components": [
            {
              "internalType": "uint256",
              "name": "id",
              "type": "uint256"
            },
            {
              "internalType": "string",
              "name": "name",
              "type": "string"
            },
            {
              "internalType": "uint256",
              "name": "voteCount",
              "type": "uint256"
            }
          ],
          "internalType": "struct ElectionManager.Candidate[]",
          "name": "",
          "type": "tuple[]"
        }
      ],
      "stateMutability": "view",
      "type": "function"
    },
    {
      "inputs": [
        {
          "internalType": "uint256",
          "name": "_id",
          "type": "uint256"
        }
      ],
      "name": "getElection",
      "outputs": [
        {
          "internalType": "uint256",
          "name": "id",
          "type": "uint256"
        },
        {
          "internalType": "string",
          "name": "title",
          "type": "string"
        },
        {
          "internalType": "string",
          "name": "description",
          "type": "string"
        },
        {
          "internalType": "uint256",
          "name": "startTime",
          "type": "uint256"
        },
        {
          "internalType": "uint256",
          "name": "endTime",
          "type": "uint256"
        },
        {
          "internalType": "uint256",
          "name": "candidateCount",
          "type": "uint256"
        }
      ],
      "stateMutability": "view",
      "type": "function"
    },
    {
      "inputs": [
        {
          "internalType": "uint256",
          "name": "_electionId",
          "type": "uint256"
        }
      ],
      "name": "getResults",
      "outputs": [
        {
          "components": [
            {
              "internalType": "uint256",
              "name": "id",
              "type": "uint256"
            },
            {
              "internalType": "string",
              "name": "name",
              "type": "string"
            },
            {
              "internalType": "uint256",
              "name": "voteCount",
              "type": "uint256"
            }
          ],
          "internalType": "struct ElectionManager.Candidate[]",
          "name": "",
          "type": "tuple[]"
        }
      ],
      "stateMutability": "view",
      "type": "function"
    },
    {
      "inputs": [
        {
          "internalType": "address",
          "name": "_wallet",
          "type": "address"
        }
      ],
      "name": "getVoter",
      "outputs": [
        {
          "internalType": "string",
          "name": "name",
          "type": "string"
        },
        {
          "internalType": "string",
          "name": "matricNo",
          "type": "string"
        },
        {
          "internalType": "address",
          "name": "wallet",
          "type": "address"
        },
        {
          "internalType": "bool",
          "name": "isVerified",
          "type": "bool"
        },
        {
          "internalType": "bool",
          "name": "hasVoted",
          "type": "bool"
        }
      ],
      "stateMutability": "view",
      "type": "function"
    },
    {
      "inputs": [
        {
          "internalType": "address",
          "name": "_wallet",
          "type": "address"
        }
      ],
      "name": "hasVoterVoted",
      "outputs": [
        {
          "internalType": "bool",
          "name": "",
          "type": "bool"
        }
      ],
      "stateMutability": "view",
      "type": "function"
    },
    {
      "inputs": [
        {
          "internalType": "address",
          "name": "_wallet",
          "type": "address"
        }
      ],
      "name": "isVoterVerified",
      "outputs": [
        {
          "internalType": "bool",
          "name": "",
          "type": "bool"
        }
      ],
      "stateMutability": "view",
      "type": "function"
    },
    {
      "inputs": [
        {
          "internalType": "string",
          "name": "",
          "type": "string"
        }
      ],
      "name": "matricToWallet",
      "outputs": [
        {
          "internalType": "address",
          "name": "",
          "type": "address"
        }
      ],
      "stateMutability": "view",
      "type": "function"
    },
    {
      "inputs": [
        {
          "internalType": "string",
          "name": "_name",
          "type": "string"
        },
        {
          "internalType": "string",
          "name": "_matricNo",
          "type": "string"
        }
      ],
      "name": "registerVoter",
      "outputs": [],
      "stateMutability": "nonpayable",
      "type": "function"
    },
    {
      "inputs": [
        {
          "internalType": "address",
          "name": "_voterAddr",
          "type": "address"
        }
      ],
      "name": "verifyVoter",
      "outputs": [],
      "stateMutability": "nonpayable",
      "type": "function"
    },
    {
      "inputs": [
        {
          "internalType": "uint256",
          "name": "_electionId",
          "type": "uint256"
        },
        {
          "internalType": "uint256",
          "name": "_candidateId",
          "type": "uint256"
        }
      ],
      "name": "vote",
      "outputs": [],
      "stateMutability": "nonpayable",
      "type": "function"
    },
    {
      "inputs": [],
      "name": "voterCount",
      "outputs": [
        {
          "internalType": "uint256",
          "name": "",
          "type": "uint256"
        }
      ],
      "stateMutability": "view",
      "type": "function"
    },
    {
      "inputs": [
        {
          "internalType": "address",
          "name": "",
          "type": "address"
        }
      ],
      "name": "voters",
      "outputs": [
        {
          "internalType": "string",
          "name": "name",
          "type": "string"
        },
        {
          "internalType": "string",
          "name": "matricNo",
          "type": "string"
        },
        {
          "internalType": "address",
          "name": "wallet",
          "type": "address"
        },
        {
          "internalType": "bool",
          "name": "isVerified",
          "type": "bool"
        },
        {
          "internalType": "bool",
          "name": "hasVoted",
          "type": "bool"
        }
      ],
      "stateMutability": "view",
      "type": "function"
    }
  ],
  "bytecode": "0x608060405234801561001057600080fd5b50336000806101000a81548173ffffffffffffffffffffffffffffffffffffffff021916908373ffffffffffffffffffffffffffffffffffffffff160217905550613be3806100606000396000f3fe608060405234801561001057600080fd5b50600436106101375760003560e01c806381a60c0d116100b8578063a520d3221161007c578063a520d32214610384578063b384abef146103b4578063d4f50f98146103d0578063ec46c75414610404578063f851a44014610420578063fd11f97a1461043e57610137565b806381a60c0d146102b15780638a4c8847146102e1578063997d2830146102fd5780639d7107771461031b578063a3ec138d1461035057610137565b806342169e48116100ff57806342169e48146101f25780634bd46448146102105780635e6fef01146102425780637ad36e84146102775780637fd5f2681461029357610137565b806309bd09501461013c5780631750a3d01461015857806335bbe70e146101745780633ce3b25d146101925780633e39a7a5146101c2575b600080fd5b6101566004803603810190610151919061252f565b61046e565b005b610172600480360381019061016d91906126d8565b6105ea565b005b61017c6107ea565b604051610189919061291c565b60405180910390f35b6101ac60048036038101906101a7919061252f565b610aca565b6040516101b9919061294d565b60405180910390f35b6101dc60048036038101906101d79190612968565b610b23565b6040516101e99190612ab6565b60405180910390f35b6101fa610d11565b6040516102079190612ae7565b60405180910390f35b61022a60048036038101906102259190612b02565b610d17565b60405161023993929190612b8c565b60405180910390f35b61025c60048036038101906102579190612968565b610e43565b60405161026e96959493929190612bca565b60405180910390f35b610291600480360381019061028c9190612c39565b610f8f565b005b61029b611157565b6040516102a89190612e2a565b60405180910390f35b6102cb60048036038101906102c69190612968565b611375565b6040516102d89190612ab6565b60405180910390f35b6102fb60048036038101906102f69190612e4c565b61155d565b005b610305611970565b6040516103129190612ae7565b60405180910390f35b61033560048036038101906103309190612968565b611976565b60405161034796959493929190612bca565b60405180910390f35b61036a6004803603810190610365919061252f565b611b34565b60405161037b959493929190612ed3565b60405180910390f35b61039e60048036038101906103999190612f34565b611cb4565b6040516103ab9190612f7d565b60405180910390f35b6103ce60048036038101906103c99190612b02565b611cfd565b005b6103ea60048036038101906103e5919061252f565b612051565b6040516103fb959493929190612ed3565b60405180910390f35b61041e60048036038101906104199190612968565b612218565b005b6104286123a0565b6040516104359190612f7d565b60405180910390f35b6104586004803603810190610453919061252f565b6123c4565b604051610465919061294d565b60405180910390f35b60008054906101000a900473ffffffffffffffffffffffffffffffffffffffff1673ffffffffffffffffffffffffffffffffffffffff163373ffffffffffffffffffffffffffffffffffffffff16146104fc576040517f08c379a00000000000000000000000000000000000000000000000000000000081526004016104f39061300a565b60405180910390fd5b6000600460008373ffffffffffffffffffffffffffffffffffffffff1673ffffffffffffffffffffffffffffffffffffffff1681526020019081526020016000209050600081600101805461055090613059565b905011610592576040517f08c379a0000000000000000000000000000000000000000000000000000000008152600401610589906130d6565b60405180910390fd5b60018160020160146101000a81548160ff0219169083151502179055507f73d35f4b5dc2339683083dec639ba37f0f5592fc26de0e0603ac5ba2412cd004826040516105de9190612f7d565b60405180910390a15050565b60008054906101000a900473ffffffffffffffffffffffffffffffffffffffff1673ffffffffffffffffffffffffffffffffffffffff163373ffffffffffffffffffffffffffffffffffffffff1614610678576040517f08c379a000000000000000000000000000000000000000000000000000000000815260040161066f9061300a565b60405180910390fd5b8160008111801561068b57506001548111155b6106ca576040517f08c379a00000000000000000000000000000000000000000000000000000000081526004016106c190613142565b60405180910390fd5b600082511161070e576040517f08c379a0000000000000000000000000000000000000000000000000000000008152600401610705906131ae565b60405180910390fd5b600060036000858152602001908152602001600020905080600501600081548092919061073a906131fd565b919050555060405180606001604052808260050154815260200184815260200160008152508160060160008360050154815260200190815260200160002060008201518160000155602082015181600101908161079791906133f1565b50604082015181600201559050507fed8911b3df733b7d5f75724158e54478ea12e30f49c9d31b5261879f5b76586f848260050154856040516107dc939291906134c3565b60405180910390a150505050565b6060600060068054905067ffffffffffffffff81111561080d5761080c6125ad565b5b60405190808252806020026020018201604052801561084657816020015b61083361241d565b81526020019060019003908161082b5790505b50905060005b600680549050811015610ac257600460006006838154811061087157610870613501565b5b9060005260206000200160009054906101000a900473ffffffffffffffffffffffffffffffffffffffff1673ffffffffffffffffffffffffffffffffffffffff1673ffffffffffffffffffffffffffffffffffffffff1681526020019081526020016000206040518060a00160405290816000820180546108f190613059565b80601f016020809104026020016040519081016040528092919081815260200182805461091d90613059565b801561096a5780601f1061093f5761010080835404028352916020019161096a565b820191906000526020600020905b81548152906001019060200180831161094d57829003601f168201915b5050505050815260200160018201805461098390613059565b80601f01602080910402602001604051908101604052809291908181526020018280546109af90613059565b80156109fc5780601f106109d1576101008083540402835291602001916109fc565b820191906000526020600020905b8154815290600101906020018083116109df57829003601f168201915b505050505081526020016002820160009054906101000a900473ffffffffffffffffffffffffffffffffffffffff1673ffffffffffffffffffffffffffffffffffffffff1673ffffffffffffffffffffffffffffffffffffffff1681526020016002820160149054906101000a900460ff161515151581526020016002820160159054906101000a900460ff161515151581525050828281518110610aa457610aa3613501565b5b60200260200101819052508080610aba906131fd565b91505061084c565b508091505090565b6000600460008373ffffffffffffffffffffffffffffffffffffffff1673ffffffffffffffffffffffffffffffffffffffff16815260200190815260200160002060020160149054906101000a900460ff169050919050565b606081600081118015610b3857506001548111155b610b77576040517f08c379a0000000000000000000000000000000000000000000000000000000008152600401610b6e90613142565b60405180910390fd5b60006003600085815260200190815260200160002090506000816005015467ffffffffffffffff811115610bae57610bad6125ad565b5b604051908082528060200260200182016040528015610be757816020015b610bd4612466565b815260200190600190039081610bcc5790505b5090506000600190505b82600501548111610d0557600083600601600083815260200190815260200160002090508060405180606001604052908160008201548152602001600182018054610c3b90613059565b80601f0160208091040260200160405190810160405280929190818152602001828054610c6790613059565b8015610cb45780601f10610c8957610100808354040283529160200191610cb4565b820191906000526020600020905b815481529060010190602001808311610c9757829003601f168201915b5050505050815260200160028201548152505083600184610cd59190613530565b81518110610ce657610ce5613501565b5b6020026020010181905250508080610cfd906131fd565b915050610bf1565b50809350505050919050565b60025481565b60006060600084600081118015610d3057506001548111155b610d6f576040517f08c379a0000000000000000000000000000000000000000000000000000000008152600401610d6690613142565b60405180910390fd5b600060036000888152602001908152602001600020600601600087815260200190815260200160002090508060000154816001018260020154818054610db490613059565b80601f0160208091040260200160405190810160405280929190818152602001828054610de090613059565b8015610e2d5780601f10610e0257610100808354040283529160200191610e2d565b820191906000526020600020905b815481529060010190602001808311610e1057829003601f168201915b5050505050915094509450945050509250925092565b6003602052806000526040600020600091509050806000015490806001018054610e6c90613059565b80601f0160208091040260200160405190810160405280929190818152602001828054610e9890613059565b8015610ee55780601f10610eba57610100808354040283529160200191610ee5565b820191906000526020600020905b815481529060010190602001808311610ec857829003601f168201915b505050505090806002018054610efa90613059565b80601f0160208091040260200160405190810160405280929190818152602001828054610f2690613059565b8015610f735780601f10610f4857610100808354040283529160200191610f73565b820191906000526020600020905b815481529060010190602001808311610f5657829003601f168201915b5050505050908060030154908060040154908060050154905086565b60008054906101000a900473ffffffffffffffffffffffffffffffffffffffff1673ffffffffffffffffffffffffffffffffffffffff163373ffffffffffffffffffffffffffffffffffffffff161461101d576040517f08c379a00000000000000000000000000000000000000000000000000000000081526004016110149061300a565b60405180910390fd5b6000845111611061576040517f08c379a0000000000000000000000000000000000000000000000000000000008152600401611058906135b0565b60405180910390fd5b8181116110a3576040517f08c379a000000000000000000000000000000000000000000000000000000000815260040161109a9061361c565b60405180910390fd5b600160008154809291906110b6906131fd565b9190505550600060036000600154815260200190815260200160002090506001548160000181905550848160010190816110f091906133f1565b508381600201908161110291906133f1565b508281600301819055508181600401819055507f52be7c4e77b4de76b7607d621492061fe13b58597e72dfb5e51ab8f6187ed1416001548660405161114892919061363c565b60405180910390a15050505050565b6060600060015467ffffffffffffffff811115611177576111766125ad565b5b6040519080825280602002602001820160405280156111b057816020015b61119d612487565b8152602001906001900390816111955790505b5090506000600190505b600154811161136d5760006003600083815260200190815260200160002090506040518060c00160405280826000015481526020018260010180546111fe90613059565b80601f016020809104026020016040519081016040528092919081815260200182805461122a90613059565b80156112775780601f1061124c57610100808354040283529160200191611277565b820191906000526020600020905b81548152906001019060200180831161125a57829003601f168201915b5050505050815260200182600201805461129090613059565b80601f01602080910402602001604051908101604052809291908181526020018280546112bc90613059565b80156113095780601f106112de57610100808354040283529160200191611309565b820191906000526020600020905b8154815290600101906020018083116112ec57829003601f168201915b50505050508152602001826003015481526020018260040154815260200182600501548152508360018461133d9190613530565b8151811061134e5761134d613501565b5b6020026020010181905250508080611365906131fd565b9150506111ba565b508091505090565b60608160008111801561138a57506001548111155b6113c9576040517f08c379a00000000000000000000000000000000000000000000000000000000081526004016113c090613142565b60405180910390fd5b60006003600085815260200190815260200160002090506000816005015467ffffffffffffffff811115611400576113ff6125ad565b5b60405190808252806020026020018201604052801561143957816020015b611426612466565b81526020019060019003908161141e5790505b5090506000600190505b82600501548111611551578260060160008281526020019081526020016000206040518060600160405290816000820154815260200160018201805461148890613059565b80601f01602080910402602001604051908101604052809291908181526020018280546114b490613059565b80156115015780601f106114d657610100808354040283529160200191611501565b820191906000526020600020905b8154815290600101906020018083116114e457829003601f168201915b50505050508152602001600282015481525050826001836115229190613530565b8151811061153357611532613501565b5b60200260200101819052508080611549906131fd565b915050611443565b50809350505050919050565b60008251116115a1576040517f08c379a0000000000000000000000000000000000000000000000000000000008152600401611598906136b8565b60405180910390fd5b60008151116115e5576040517f08c379a00000000000000000000000000000000000000000000000000000000081526004016115dc90613724565b60405180910390fd5b600073ffffffffffffffffffffffffffffffffffffffff1660058260405161160d9190613780565b908152602001604051809103902060009054906101000a900473ffffffffffffffffffffffffffffffffffffffff1673ffffffffffffffffffffffffffffffffffffffff1614611692576040517f08c379a0000000000000000000000000000000000000000000000000000000008152600401611689906137e3565b60405180910390fd5b6000600460003373ffffffffffffffffffffffffffffffffffffffff1673ffffffffffffffffffffffffffffffffffffffff16815260200190815260200160002060010180546116e190613059565b905014611723576040517f08c379a000000000000000000000000000000000000000000000000000000000815260040161171a9061384f565b60405180910390fd5b6040518060a001604052808381526020018281526020013373ffffffffffffffffffffffffffffffffffffffff16815260200160001515815260200160001515815250600460003373ffffffffffffffffffffffffffffffffffffffff1673ffffffffffffffffffffffffffffffffffffffff16815260200190815260200160002060008201518160000190816117ba91906133f1565b5060208201518160010190816117d091906133f1565b5060408201518160020160006101000a81548173ffffffffffffffffffffffffffffffffffffffff021916908373ffffffffffffffffffffffffffffffffffffffff16021790555060608201518160020160146101000a81548160ff02191690831515021790555060808201518160020160156101000a81548160ff0219169083151502179055509050503360058260405161186c9190613780565b908152602001604051809103902060006101000a81548173ffffffffffffffffffffffffffffffffffffffff021916908373ffffffffffffffffffffffffffffffffffffffff1602179055506006339080600181540180825580915050600190039060005260206000200160009091909190916101000a81548173ffffffffffffffffffffffffffffffffffffffff021916908373ffffffffffffffffffffffffffffffffffffffff1602179055506002600081548092919061192e906131fd565b91905055507fffeb7702be7dcd8fee170d954b70afb9a7c78f7f5cff232d037e7b9d8243356a338260405161196492919061386f565b60405180910390a15050565b60015481565b600060608060008060008660008111801561199357506001548111155b6119d2576040517f08c379a00000000000000000000000000000000000000000000000000000000081526004016119c990613142565b60405180910390fd5b6000600360008a8152602001908152602001600020905080600001548160010182600201836003015484600401548560050154848054611a1190613059565b80601f0160208091040260200160405190810160405280929190818152602001828054611a3d90613059565b8015611a8a5780601f10611a5f57610100808354040283529160200191611a8a565b820191906000526020600020905b815481529060010190602001808311611a6d57829003601f168201915b50505050509450838054611a9d90613059565b80601f0160208091040260200160405190810160405280929190818152602001828054611ac990613059565b8015611b165780601f10611aeb57610100808354040283529160200191611b16565b820191906000526020600020905b815481529060010190602001808311611af957829003601f168201915b50505050509350975097509750975097509750505091939550919395565b6004602052806000526040600020600091509050806000018054611b5790613059565b80601f0160208091040260200160405190810160405280929190818152602001828054611b8390613059565b8015611bd05780601f10611ba557610100808354040283529160200191611bd0565b820191906000526020600020905b815481529060010190602001808311611bb357829003601f168201915b505050505090806001018054611be590613059565b80601f0160208091040260200160405190810160405280929190818152602001828054611c1190613059565b8015611c5e5780601f10611c3357610100808354040283529160200191611c5e565b820191906000526020600020905b815481529060010190602001808311611c4157829003601f168201915b5050505050908060020160009054906101000a900473ffffffffffffffffffffffffffffffffffffffff16908060020160149054906101000a900460ff16908060020160159054906101000a900460ff16905085565b6005818051602081018201805184825260208301602085012081835280955050505050506000915054906101000a900473ffffffffffffffffffffffffffffffffffffffff1681565b81600081118015611d1057506001548111155b611d4f576040517f08c379a0000000000000000000000000000000000000000000000000000000008152600401611d4690613142565b60405180910390fd5b60006003600085815260200190815260200160002090506000600460003373ffffffffffffffffffffffffffffffffffffffff1673ffffffffffffffffffffffffffffffffffffffff16815260200190815260200160002090508060020160149054906101000a900460ff16611dfa576040517f08c379a0000000000000000000000000000000000000000000000000000000008152600401611df1906138eb565b60405180910390fd5b8160030154421015611e41576040517f08c379a0000000000000000000000000000000000000000000000000000000008152600401611e3890613957565b60405180910390fd5b8160040154421115611e88576040517f08c379a0000000000000000000000000000000000000000000000000000000008152600401611e7f906139c3565b60405180910390fd5b8160070160003373ffffffffffffffffffffffffffffffffffffffff1673ffffffffffffffffffffffffffffffffffffffff16815260200190815260200160002060009054906101000a900460ff1615611f17576040517f08c379a0000000000000000000000000000000000000000000000000000000008152600401611f0e90613a55565b60405180910390fd5b600084118015611f2b575081600501548411155b611f6a576040517f08c379a0000000000000000000000000000000000000000000000000000000008152600401611f6190613ac1565b60405180910390fd5b8160060160008581526020019081526020016000206002016000815480929190611f93906131fd565b919050555060018260070160003373ffffffffffffffffffffffffffffffffffffffff1673ffffffffffffffffffffffffffffffffffffffff16815260200190815260200160002060006101000a81548160ff02191690831515021790555060018160020160156101000a81548160ff0219169083151502179055507fe7ee74ca1f4bb1b82b14f87794c45b3e59c39e372b862fb97a6316b43355b69e85338660405161204293929190613ae1565b60405180910390a15050505050565b606080600080600080600460008873ffffffffffffffffffffffffffffffffffffffff1673ffffffffffffffffffffffffffffffffffffffff168152602001908152602001600020905080600001816001018260020160009054906101000a900473ffffffffffffffffffffffffffffffffffffffff168360020160149054906101000a900460ff168460020160159054906101000a900460ff168480546120f890613059565b80601f016020809104026020016040519081016040528092919081815260200182805461212490613059565b80156121715780601f1061214657610100808354040283529160200191612171565b820191906000526020600020905b81548152906001019060200180831161215457829003601f168201915b5050505050945083805461218490613059565b80601f01602080910402602001604051908101604052809291908181526020018280546121b090613059565b80156121fd5780601f106121d2576101008083540402835291602001916121fd565b820191906000526020600020905b8154815290600101906020018083116121e057829003601f168201915b50505050509350955095509550955095505091939590929450565b60008054906101000a900473ffffffffffffffffffffffffffffffffffffffff1673ffffffffffffffffffffffffffffffffffffffff163373ffffffffffffffffffffffffffffffffffffffff16146122a6576040517f08c379a000000000000000000000000000000000000000000000000000000000815260040161229d9061300a565b60405180910390fd5b806000811180156122b957506001548111155b6122f8576040517f08c379a00000000000000000000000000000000000000000000000000000000081526004016122ef90613142565b60405180910390fd5b600060036000848152602001908152602001600020905080600401544210612355576040517f08c379a000000000000000000000000000000000000000000000000000000000815260040161234c90613b64565b60405180910390fd5b4281600401819055507f32e2c12037f9600b91a766ce53eab6909f3bdb865851cd9a8c7fafbdf249a9ce838260040154604051612393929190613b84565b60405180910390a1505050565b60008054906101000a900473ffffffffffffffffffffffffffffffffffffffff1681565b6000600460008373ffffffffffffffffffffffffffffffffffffffff1673ffffffffffffffffffffffffffffffffffffffff16815260200190815260200160002060020160159054906101000a900460ff169050919050565b6040518060a001604052806060815260200160608152602001600073ffffffffffffffffffffffffffffffffffffffff1681526020016000151581526020016000151581525090565b60405180606001604052806000815260200160608152602001600081525090565b6040518060c001604052806000815260200160608152602001606081526020016000815260200160008152602001600081525090565b6000604051905090565b600080fd5b600080fd5b600073ffffffffffffffffffffffffffffffffffffffff82169050919050565b60006124fc826124d1565b9050919050565b61250c816124f1565b811461251757600080fd5b50565b60008135905061252981612503565b92915050565b600060208284031215612545576125446124c7565b5b60006125538482850161251a565b91505092915050565b6000819050919050565b61256f8161255c565b811461257a57600080fd5b50565b60008135905061258c81612566565b92915050565b600080fd5b600080fd5b6000601f19601f8301169050919050565b7f4e487b7100000000000000000000000000000000000000000000000000000000600052604160045260246000fd5b6125e58261259c565b810181811067ffffffffffffffff82111715612604576126036125ad565b5b80604052505050565b60006126176124bd565b905061262382826125dc565b919050565b600067ffffffffffffffff821115612643576126426125ad565b5b61264c8261259c565b9050602081019050919050565b82818337600083830152505050565b600061267b61267684612628565b61260d565b90508281526020810184848401111561269757612696612597565b5b6126a2848285612659565b509392505050565b600082601f8301126126bf576126be612592565b5b81356126cf848260208601612668565b91505092915050565b600080604083850312156126ef576126ee6124c7565b5b60006126fd8582860161257d565b925050602083013567ffffffffffffffff81111561271e5761271d6124cc565b5b61272a858286016126aa565b9150509250929050565b600081519050919050565b600082825260208201905092915050565b6000819050602082019050919050565b600081519050919050565b600082825260208201905092915050565b60005b8381101561279a57808201518184015260208101905061277f565b60008484015250505050565b60006127b182612760565b6127bb818561276b565b93506127cb81856020860161277c565b6127d48161259c565b840191505092915050565b6127e8816124f1565b82525050565b60008115159050919050565b612803816127ee565b82525050565b600060a083016000830151848203600086015261282682826127a6565b9150506020830151848203602086015261284082826127a6565b915050604083015161285560408601826127df565b50606083015161286860608601826127fa565b50608083015161287b60808601826127fa565b508091505092915050565b60006128928383612809565b905092915050565b6000602082019050919050565b60006128b282612734565b6128bc818561273f565b9350836020820285016128ce85612750565b8060005b8581101561290a57848403895281516128eb8582612886565b94506128f68361289a565b925060208a019950506001810190506128d2565b50829750879550505050505092915050565b6000602082019050818103600083015261293681846128a7565b905092915050565b612947816127ee565b82525050565b6000602082019050612962600083018461293e565b92915050565b60006020828403121561297e5761297d6124c7565b5b600061298c8482850161257d565b91505092915050565b600081519050919050565b600082825260208201905092915050565b6000819050602082019050919050565b6129ca8161255c565b82525050565b60006060830160008301516129e860008601826129c1565b5060208301518482036020860152612a0082826127a6565b9150506040830151612a1560408601826129c1565b508091505092915050565b6000612a2c83836129d0565b905092915050565b6000602082019050919050565b6000612a4c82612995565b612a5681856129a0565b935083602082028501612a68856129b1565b8060005b85811015612aa45784840389528151612a858582612a20565b9450612a9083612a34565b925060208a01995050600181019050612a6c565b50829750879550505050505092915050565b60006020820190508181036000830152612ad08184612a41565b905092915050565b612ae18161255c565b82525050565b6000602082019050612afc6000830184612ad8565b92915050565b60008060408385031215612b1957612b186124c7565b5b6000612b278582860161257d565b9250506020612b388582860161257d565b9150509250929050565b600082825260208201905092915050565b6000612b5e82612760565b612b688185612b42565b9350612b7881856020860161277c565b612b818161259c565b840191505092915050565b6000606082019050612ba16000830186612ad8565b8181036020830152612bb38185612b53565b9050612bc26040830184612ad8565b949350505050565b600060c082019050612bdf6000830189612ad8565b8181036020830152612bf18188612b53565b90508181036040830152612c058187612b53565b9050612c146060830186612ad8565b612c216080830185612ad8565b612c2e60a0830184612ad8565b979650505050505050565b60008060008060808587031215612c5357612c526124c7565b5b600085013567ffffffffffffffff811115612c7157612c706124cc565b5b612c7d878288016126aa565b945050602085013567ffffffffffffffff811115612c9e57612c9d6124cc565b5b612caa878288016126aa565b9350506040612cbb8782880161257d565b9250506060612ccc8782880161257d565b91505092959194509250565b600081519050919050565b600082825260208201905092915050565b6000819050602082019050919050565b600060c083016000830151612d1c60008601826129c1565b5060208301518482036020860152612d3482826127a6565b91505060408301518482036040860152612d4e82826127a6565b9150506060830151612d6360608601826129c1565b506080830151612d7660808601826129c1565b5060a0830151612d8960a08601826129c1565b508091505092915050565b6000612da08383612d04565b905092915050565b6000602082019050919050565b6000612dc082612cd8565b612dca8185612ce3565b935083602082028501612ddc85612cf4565b8060005b85811015612e185784840389528151612df98582612d94565b9450612e0483612da8565b925060208a01995050600181019050612de0565b50829750879550505050505092915050565b60006020820190508181036000830152612e448184612db5565b905092915050565b60008060408385031215612e6357612e626124c7565b5b600083013567ffffffffffffffff811115612e8157612e806124cc565b5b612e8d858286016126aa565b925050602083013567ffffffffffffffff811115612eae57612ead6124cc565b5b612eba858286016126aa565b9150509250929050565b612ecd816124f1565b82525050565b600060a0820190508181036000830152612eed8188612b53565b90508181036020830152612f018187612b53565b9050612f106040830186612ec4565b612f1d606083018561293e565b612f2a608083018461293e565b9695505050505050565b600060208284031215612f4a57612f496124c7565b5b600082013567ffffffffffffffff811115612f6857612f676124cc565b5b612f74848285016126aa565b91505092915050565b6000602082019050612f926000830184612ec4565b92915050565b7f4f6e6c7920617574686f72697a656420757365722063616e20706572666f726d60008201527f207468697320616374696f6e0000000000000000000000000000000000000000602082015250565b6000612ff4602c83612b42565b9150612fff82612f98565b604082019050919050565b6000602082019050818103600083015261302381612fe7565b9050919050565b7f4e487b7100000000000000000000000000000000000000000000000000000000600052602260045260246000fd5b6000600282049050600182168061307157607f821691505b6020821081036130845761308361302a565b5b50919050565b7f566f746572206e6f742072656769737465726564000000000000000000000000600082015250565b60006130c0601483612b42565b91506130cb8261308a565b602082019050919050565b600060208201905081810360008301526130ef816130b3565b9050919050565b7f456c656374696f6e20646f6573206e6f74206578697374000000000000000000600082015250565b600061312c601783612b42565b9150613137826130f6565b602082019050919050565b6000602082019050818103600083015261315b8161311f565b9050919050565b7f43616e646964617465206e616d65207265717569726564000000000000000000600082015250565b6000613198601783612b42565b91506131a382613162565b602082019050919050565b600060208201905081810360008301526131c78161318b565b9050919050565b7f4e487b7100000000000000000000000000000000000000000000000000000000600052601160045260246000fd5b60006132088261255c565b91507fffffffffffffffffffffffffffffffffffffffffffffffffffffffffffffffff820361323a576132396131ce565b5b600182019050919050565b60008190508160005260206000209050919050565b60006020601f8301049050919050565b600082821b905092915050565b6000600883026132a77fffffffffffffffffffffffffffffffffffffffffffffffffffffffffffffffff8261326a565b6132b1868361326a565b95508019841693508086168417925050509392505050565b6000819050919050565b60006132ee6132e96132e48461255c565b6132c9565b61255c565b9050919050565b6000819050919050565b613308836132d3565b61331c613314826132f5565b848454613277565b825550505050565b600090565b613331613324565b61333c8184846132ff565b505050565b5b8181101561336057613355600082613329565b600181019050613342565b5050565b601f8211156133a55761337681613245565b61337f8461325a565b8101602085101561338e578190505b6133a261339a8561325a565b830182613341565b50505b505050565b600082821c905092915050565b60006133c8600019846008026133aa565b1980831691505092915050565b60006133e183836133b7565b9150826002028217905092915050565b6133fa82612760565b67ffffffffffffffff811115613413576134126125ad565b5b61341d8254613059565b613428828285613364565b600060209050601f83116001811461345b5760008415613449578287015190505b61345385826133d5565b8655506134bb565b601f19841661346986613245565b60005b828110156134915784890151825560018201915060208501945060208101905061346c565b868310156134ae57848901516134aa601f8916826133b7565b8355505b6001600288020188555050505b505050505050565b60006060820190506134d86000830186612ad8565b6134e56020830185612ad8565b81810360408301526134f78184612b53565b9050949350505050565b7f4e487b7100000000000000000000000000000000000000000000000000000000600052603260045260246000fd5b600061353b8261255c565b91506135468361255c565b925082820390508181111561355e5761355d6131ce565b5b92915050565b7f5469746c65207265717569726564000000000000000000000000000000000000600082015250565b600061359a600e83612b42565b91506135a582613564565b602082019050919050565b600060208201905081810360008301526135c98161358d565b9050919050565b7f496e76616c69642074696d652072616e67650000000000000000000000000000600082015250565b6000613606601283612b42565b9150613611826135d0565b602082019050919050565b60006020820190508181036000830152613635816135f9565b9050919050565b60006040820190506136516000830185612ad8565b81810360208301526136638184612b53565b90509392505050565b7f4e616d6520726571756972656400000000000000000000000000000000000000600082015250565b60006136a2600d83612b42565b91506136ad8261366c565b602082019050919050565b600060208201905081810360008301526136d181613695565b9050919050565b7f4d6174726963206e756d62657220726571756972656400000000000000000000600082015250565b600061370e601683612b42565b9150613719826136d8565b602082019050919050565b6000602082019050818103600083015261373d81613701565b9050919050565b600081905092915050565b600061375a82612760565b6137648185613744565b935061377481856020860161277c565b80840191505092915050565b600061378c828461374f565b915081905092915050565b7f4d6174726963206e756d62657220616c72656164792072656769737465726564600082015250565b60006137cd602083612b42565b91506137d882613797565b602082019050919050565b600060208201905081810360008301526137fc816137c0565b9050919050565b7f416c726561647920726567697374657265640000000000000000000000000000600082015250565b6000613839601283612b42565b915061384482613803565b602082019050919050565b600060208201905081810360008301526138688161382c565b9050919050565b60006040820190506138846000830185612ec4565b81810360208301526138968184612b53565b90509392505050565b7f566f746572206e6f742076657269666965640000000000000000000000000000600082015250565b60006138d5601283612b42565b91506138e08261389f565b602082019050919050565b60006020820190508181036000830152613904816138c8565b9050919050565b7f456c656374696f6e20686173206e6f7420737461727465640000000000000000600082015250565b6000613941601883612b42565b915061394c8261390b565b602082019050919050565b6000602082019050818103600083015261397081613934565b9050919050565b7f456c656374696f6e2068617320656e6465640000000000000000000000000000600082015250565b60006139ad601283612b42565b91506139b882613977565b602082019050919050565b600060208201905081810360008301526139dc816139a0565b9050919050565b7f596f7520616c726561647920766f74656420696e207468697320656c6563746960008201527f6f6e000000000000000000000000000000000000000000000000000000000000602082015250565b6000613a3f602283612b42565b9150613a4a826139e3565b604082019050919050565b60006020820190508181036000830152613a6e81613a32565b9050919050565b7f496e76616c69642063616e646964617465000000000000000000000000000000600082015250565b6000613aab601183612b42565b9150613ab682613a75565b602082019050919050565b60006020820190508181036000830152613ada81613a9e565b9050919050565b6000606082019050613af66000830186612ad8565b613b036020830185612ec4565b613b106040830184612ad8565b949350505050565b7f456c656374696f6e20616c726561647920656e64656400000000000000000000600082015250565b6000613b4e601683612b42565b9150613b5982613b18565b602082019050919050565b60006020820190508181036000830152613b7d81613b41565b9050919050565b6000604082019050613b996000830185612ad8565b613ba66020830184612ad8565b939250505056fea26469706673582212209272af8c083bf45cfb27bbac44bae734fb7af0772426d29ed5e5f58b86de47bf64736f6c63430008130033",
  "linkReferences": {},
  "deployedLinkReferences": {}
}