{
  "_format": "hh-sol-artifact-1",
  "contractName": "ElectionManager",
  "sourceName": "contracts/ElectionManager.sol",
  "abi": [
    {
      "inputs": [],
      "stateMutability": "nonpayable",
      "type": "constructor"
    },
    {
      "anonymous": false,
      "inputs": [
        {
          "indexed": false,
          "internalType": "uint256",
          "name": "electionId",
          "type": "uint256"
        },
        {
          "indexed": false,
          "internalType": "uint256",
          "name": "candidateId",
          "type": "uint256"
        },
        {
          "indexed": false,
          "internalType": "string",
          "name": "name",
          "type": "string"
        }
      ],
      "name": "CandidateAdded",
      "type": "event"
    },
    {
      "anonymous": false,
      "inputs": [
        {
          "indexed": false,
          "internalType": "uint256",
          "name": "electionId",
          "type": "uint256"
        },
        {
          "indexed": false,
          "internalType": "string",
          "name": "title",
          "type": "string"
        }
      ],
      "name": "ElectionCreated",
      "type": "event"
    },
    {
      "anonymous": false,
      "inputs": [
        {
          "indexed": false,
          "internalType": "uint256",
          "name": "electionId",
          "type": "uint256"
        },
        {
          "indexed": false,
          "internalType": "uint256",
          "name": "endTime",
          "type": "uint256"
        }
      ],
      "name": "ElectionEnded",
      "type": "event"
    },
    {
      "anonymous": false,
      "inputs": [
        {
          "indexed": false,
          "internalType": "uint256",
          "name": "electionId",
          "type": "uint256"
        },
        {
          "indexed": false,
          "internalType": "address",
          "name": "voter",
          "type": "address"
        },
        {
          "indexed": false,
          "internalType": "uint256",
          "name": "candidateId",
          "type": "uint256"
        }
      ],
      "name": "VoteCasted",
      "type": "event"
    },
    {
      "anonymous": false,
      "inputs": [
        {
          "indexed": false,
          "internalType": "address",
          "name": "voter",
          "type": "address"
        },
        {
          "indexed": false,
          "internalType": "string",
          "name": "matricNo",
          "type": "string"
        }
      ],
      "name": "VoterRegistered",
      "type": "event"
    },
    {
      "anonymous": false,
      "inputs": [
        {
          "indexed": false,
          "internalType": "address",
          "name": "voter",
          "type": "address"
        }
      ],
      "name": "VoterVerified",
      "type": "event"
    },
    {
      "inputs": [
        {
          "internalType": "uint256",
          "name": "_electionId",
          "type": "uint256"
        },
        {
          "internalType": "string",
          "name": "_name",
          "type": "string"
        }
      ],
      "name": "addCandidate",
      "outputs": [],
      "stateMutability": "nonpayable",
      "type": "function"
    },
    {
      "inputs": [],
      "name": "admin",
      "outputs": [
        {
          "internalType": "address",
          "name": "",
          "type": "address"
        }
      ],
      "stateMutability": "view",
      "type": "function"
    },
    {
      "inputs": [
        {
          "internalType": "string",
          "name": "_title",
          "type": "string"
        },
        {
          "internalType": "string",
          "name": "_description",
          "type": "string"
        },
        {
          "internalType": "uint256",
          "name": "_startTime",
          "type": "uint256"
        },
        {
          "internalType": "uint256",
          "name": "_endTime",
          "type": "uint256"
        }
      ],
      "name": "createElection",
      "outputs": [],
      "stateMutability": "nonpayable",
      "type": "function"
    },
    {
      "inputs": [
        {
          "internalType": "uint256",
          "name": "_electionId",
          "type": "uint256"
        },
        {
          "internalType": "uint256",
          "name": "_candidateId",
          "type": "uint256"
        }
      ],
      "name": "deleteCandidate",
      "outputs": [],
      "stateMutability": "nonpayable",
      "type": "function"
    },
    {
      "inputs": [
        {
          "internalType": "uint256",
          "name": "_electionId",
          "type": "uint256"
        }
      ],
      "name": "deleteElection",
      "outputs": [],
      "stateMutability": "nonpayable",
      "type": "function"
    },
    {
      "inputs": [],
      "name": "electionCount",
      "outputs": [
        {
          "internalType": "uint256",
          "name": "",
          "type": "uint256"
        }
      ],
      "stateMutability": "view",
      "type": "function"
    },
    {
      "inputs": [
        {
          "internalType": "uint256",
          "name": "",
          "type": "uint256"
        }
      ],
      "name": "elections",
      "outputs": [
        {
          "internalType": "uint256",
          "name": "id",
          "type": "uint256"
        },
        {
          "internalType": "string",
          "name": "title",
          "type": "string"
        },
        {
          "internalType": "string",
          "name": "description",
          "type": "string"
        },
        {
          "internalType": "uint256",
          "name": "startTime",
          "type": "uint256"
        },
        {
          "internalType": "uint256",
          "name": "endTime",
          "type": "uint256"
        },
        {
          "internalType": "uint256",
          "name": "candidateCount",
          "type": "uint256"
        }
      ],
      "stateMutability": "view",
      "type": "function"
    },
    {
      "inputs": [
        {
          "internalType": "uint256",
          "name": "_electionId",
          "type": "uint256"
        }
      ],
      "name": "endElectionEarly",
      "outputs": [],
      "stateMutability": "nonpayable",
      "type": "function"
    },
    {
      "inputs": [],
      "name": "getAllElections",
      "outputs": [
        {
          "components": [
            {
              "internalType": "uint256",
              "name": "id",
              "type": "uint256"
            },
            {
              "internalType": "string",
              "name": "title",
              "type": "string"
            },
            {
              "internalType": "string",
              "name": "description",
              "type": "string"
            },
            {
              "internalType": "uint256",
              "name": "startTime",
              "type": "uint256"
            },
            {
              "internalType": "uint256",
              "name": "endTime",
              "type": "uint256"
            },
            {
              "internalType": "uint256",
              "name": "candidateCount",
              "type": "uint256"
            }
          ],
          "internalType": "struct ElectionManager.ElectionSummary[]",
          "name": "",
          "type": "tuple[]"
        }
      ],
      "stateMutability": "view",
      "type": "function"
    },
    {
      "inputs": [],
      "name": "getAllVoters",
      "outputs": [
        {
          "components": [
            {
              "internalType": "string",
              "name": "name",
              "type": "string"
            },
            {
              "internalType": "string",
              "name": "matricNo",
              "type": "string"
            },
            {
              "internalType": "address",
              "name": "wallet",
              "type": "address"
            },
            {
              "internalType": "bool",
              "name": "isVerified",
              "type": "bool"
            },
            {
              "internalType": "bool",
              "name": "hasVoted",
              "type": "bool"
            }
          ],
          "internalType": "struct ElectionManager.Voter[]",
          "name": "",
          "type": "tuple[]"
        }
      ],
      "stateMutability": "view",
      "type": "function"
    },
    {
      "inputs": [
        {
          "internalType": "uint256",
          "name": "_electionId",
          "type": "uint256"
        },
        {
          "internalType": "uint256",
          "name": "_candidateId",
          "type": "uint256"
        }
      ],
      "name": "getCandidate",
      "outputs": [
        {
          "internalType": "uint256",
          "name": "",
          "type": "uint256"
        },
        {
          "internalType": "string",
          "name": "",
          "type": "string"
        },
        {
          "internalType": "uint256",
          "name": "",
          "type": "uint256"
        }
      ],
      "stateMutability": "view",
      "type": "function"
    },
    {
      "inputs": [
        {
          "internalType": "uint256",
          "name": "_electionId",
          "type": "uint256"
        }
      ],
      "name": "getCandidates",
      "outputs": [
        {
          "components": [
            {
              "internalType": "uint256",
              "name": "id",
              "type": "uint256"
            },
            {
              "internalType": "string",
              "name": "name",
              "type": "string"
            },
            {
              "internalType": "uint256",
              "name": "voteCount",
              "type": "uint256"
            }
          ],
          "internalType": "struct ElectionManager.Candidate[]",
          "name": "",
          "type": "tuple[]"
        }
      ],
      "stateMutability": "view",
      "type": "function"
    },
    {
      "inputs": [
        {
          "internalType": "uint256",
          "name": "_electionId",
          "type": "uint256"
        }
      ],
      "name": "getCandidatesWithLock",
      "outputs": [
        {
          "components": [
            {
              "internalType": "uint256",
              "name": "id",
              "type": "uint256"
            },
            {
              "internalType": "string",
              "name": "name",
              "type": "string"
            },
            {
              "internalType": "uint256",
              "name": "voteCount",
              "type": "uint256"
            }
          ],
          "internalType": "struct ElectionManager.Candidate[]",
          "name": "",
          "type": "tuple[]"
        },
        {
          "internalType": "bool",
          "name": "electionLocked",
          "type": "bool"
        }
      ],
      "stateMutability": "view",
      "type": "function"
    },
    {
      "inputs": [
        {
          "internalType": "uint256",
          "name": "_id",
          "type": "uint256"
        }
      ],
      "name": "getElection",
      "outputs": [
        {
          "internalType": "uint256",
          "name": "id",
          "type": "uint256"
        },
        {
          "internalType": "string",
          "name": "title",
          "type": "string"
        },
        {
          "internalType": "string",
          "name": "description",
          "type": "string"
        },
        {
          "internalType": "uint256",
          "name": "startTime",
          "type": "uint256"
        },
        {
          "internalType": "uint256",
          "name": "endTime",
          "type": "uint256"
        },
        {
          "internalType": "uint256",
          "name": "candidateCount",
          "type": "uint256"
        }
      ],
      "stateMutability": "view",
      "type": "function"
    },
    {
      "inputs": [
        {
          "internalType": "uint256",
          "name": "_electionId",
          "type": "uint256"
        }
      ],
      "name": "getResults",
      "outputs": [
        {
          "components": [
            {
              "internalType": "uint256",
              "name": "id",
              "type": "uint256"
            },
            {
              "internalType": "string",
              "name": "name",
              "type": "string"
            },
            {
              "internalType": "uint256",
              "name": "voteCount",
              "type": "uint256"
            }
          ],
          "internalType": "struct ElectionManager.Candidate[]",
          "name": "",
          "type": "tuple[]"
        }
      ],
      "stateMutability": "view",
      "type": "function"
    },
    {
      "inputs": [
        {
          "internalType": "address",
          "name": "_wallet",
          "type": "address"
        }
      ],
      "name": "getVoter",
      "outputs": [
        {
          "internalType": "string",
          "name": "name",
          "type": "string"
        },
        {
          "internalType": "string",
          "name": "matricNo",
          "type": "string"
        },
        {
          "internalType": "address",
          "name": "wallet",
          "type": "address"
        },
        {
          "internalType": "bool",
          "name": "isVerified",
          "type": "bool"
        },
        {
          "internalType": "bool",
          "name": "hasVoted",
          "type": "bool"
        }
      ],
      "stateMutability": "view",
      "type": "function"
    },
    {
      "inputs": [
        {
          "internalType": "uint256",
          "name": "_electionId",
          "type": "uint256"
        },
        {
          "internalType": "address",
          "name": "_wallet",
          "type": "address"
        }
      ],
      "name": "hasVotedInElection",
      "outputs": [
        {
          "internalType": "bool",
          "name": "",
          "type": "bool"
        }
      ],
      "stateMutability": "view",
      "type": "function"
    },
    {
      "inputs": [
        {
          "internalType": "address",
          "name": "_wallet",
          "type": "address"
        }
      ],
      "name": "hasVoterVoted",
      "outputs": [
        {
          "internalType": "bool",
          "name": "",
          "type": "bool"
        }
      ],
      "stateMutability": "view",
      "type": "function"
    },
    {
      "inputs": [
        {
          "internalType": "address",
          "name": "_wallet",
          "type": "address"
        }
      ],
      "name": "isVoterVerified",
      "outputs": [
        {
          "internalType": "bool",
          "name": "",
          "type": "bool"
        }
      ],
      "stateMutability": "view",
      "type": "function"
    },
    {
      "inputs": [
        {
          "internalType": "string",
          "name": "",
          "type": "string"
        }
      ],
      "name": "matricToWallet",
      "outputs": [
        {
          "internalType": "address",
          "name": "",
          "type": "address"
        }
      ],
      "stateMutability": "view",
      "type": "function"
    },
    {
      "inputs": [
        {
          "internalType": "string",
          "name": "_name",
          "type": "string"
        },
        {
          "internalType": "string",
          "name": "_matricNo",
          "type": "string"
        }
      ],
      "name": "registerVoter",
      "outputs": [],
      "stateMutability": "nonpayable",
      "type": "function"
    },
    {
      "inputs": [
        {
          "internalType": "uint256",
          "name": "_electionId",
          "type": "uint256"
        },
        {
          "internalType": "uint256",
          "name": "_candidateId",
          "type": "uint256"
        },
        {
          "internalType": "string",
          "name": "_name",
          "type": "string"
        }
      ],
      "name": "updateCandidate",
      "outputs": [],
      "stateMutability": "nonpayable",
      "type": "function"
    },
    {
      "inputs": [
        {
          "internalType": "uint256",
          "name": "_electionId",
          "type": "uint256"
        },
        {
          "internalType": "string",
          "name": "_title",
          "type": "string"
        },
        {
          "internalType": "string",
          "name": "_description",
          "type": "string"
        },
        {
          "internalType": "uint256",
          "name": "_startTime",
          "type": "uint256"
        },
        {
          "internalType": "uint256",
          "name": "_endTime",
          "type": "uint256"
        }
      ],
      "name": "updateElection",
      "outputs": [],
      "stateMutability": "nonpayable",
      "type": "function"
    },
    {
      "inputs": [
        {
          "internalType": "address",
          "name": "_voterAddr",
          "type": "address"
        }
      ],
      "name": "verifyVoter",
      "outputs": [],
      "stateMutability": "nonpayable",
      "type": "function"
    },
    {
      "inputs": [
        {
          "internalType": "uint256",
          "name": "_electionId",
          "type": "uint256"
        },
        {
          "internalType": "uint256",
          "name": "_candidateId",
          "type": "uint256"
        }
      ],
      "name": "vote",
      "outputs": [],
      "stateMutability": "nonpayable",
      "type": "function"
    },
    {
      "inputs": [],
      "name": "voterCount",
      "outputs": [
        {
          "internalType": "uint256",
          "name": "",
          "type": "uint256"
        }
      ],
      "stateMutability": "view",
      "type": "function"
    },
    {
      "inputs": [
        {
          "internalType": "address",
          "name": "",
          "type": "address"
        }
      ],
      "name": "voters",
      "outputs": [
        {
          "internalType": "string",
          "name": "name",
          "type": "string"
        },
        {
          "internalType": "string",
          "name": "matricNo",
          "type": "string"
        },
        {
          "internalType": "address",
          "name": "wallet",
          "type": "address"
        },
        {
          "internalType": "bool",
          "name": "isVerified",
          "type": "bool"
        },
        {
          "internalType": "bool",
          "name": "hasVoted",
          "type": "bool"
        }
      ],
      "stateMutability": "view",
      "type": "function"
    }
  ],
  "bytecode": "0x608060405234801561001057600080fd5b50336000806101000a81548173ffffffffffffffffffffffffffffffffffffffff021916908373ffffffffffffffffffffffffffffffffffffffff160217905550614d1e806100606000396000f3fe608060405234801561001057600080fd5b50600436106101a95760003560e01c80637ad36e84116100f9578063a520d32211610097578063d4f50f9811610071578063d4f50f9814610513578063ec46c75414610547578063f851a44014610563578063fd11f97a14610581576101a9565b8063a520d322146104ab578063b384abef146104db578063cf4a6060146104f7576101a9565b80638a4c8847116100d35780638a4c884714610408578063997d2830146104245780639d71077714610442578063a3ec138d14610477576101a9565b80637ad36e841461039e5780637fd5f268146103ba57806381a60c0d146103d8576101a9565b80633ce3b25d116101665780634bd46448116101405780634bd46448146102eb5780635bc261fa1461031d5780635e6fef011461034d578063740c47d414610382576101a9565b80633ce3b25d1461026d5780633e39a7a51461029d57806342169e48146102cd576101a9565b806309bd0950146101ae5780631750a3d0146101ca57806335bbe70e146101e657806336af08a51461020457806338998e55146102205780633bb76ef614610251575b600080fd5b6101c860048036038101906101c39190613181565b6105b1565b005b6101e460048036038101906101df919061332a565b61072d565b005b6101ee61092d565b6040516101fb919061356e565b60405180910390f35b61021e60048036038101906102199190613590565b610c0d565b005b61023a60048036038101906102359190613643565b610dcb565b6040516102489291906137a0565b60405180910390f35b61026b600480360381019061026691906137d0565b610fe3565b005b61028760048036038101906102829190613181565b6111e4565b604051610294919061383f565b60405180910390f35b6102b760048036038101906102b29190613643565b61123d565b6040516102c4919061385a565b60405180910390f35b6102d561142b565b6040516102e2919061388b565b60405180910390f35b610305600480360381019061030091906138a6565b611431565b60405161031493929190613930565b60405180910390f35b6103376004803603810190610332919061396e565b61155d565b604051610344919061383f565b60405180910390f35b61036760048036038101906103629190613643565b6115c8565b604051610379969594939291906139ae565b60405180910390f35b61039c60048036038101906103979190613643565b611714565b005b6103b860048036038101906103b39190613a1d565b6118f3565b005b6103c2611abb565b6040516103cf9190613c0e565b60405180910390f35b6103f260048036038101906103ed9190613643565b611cd9565b6040516103ff919061385a565b60405180910390f35b610422600480360381019061041d9190613c30565b611ec1565b005b61042c6122d4565b604051610439919061388b565b60405180910390f35b61045c60048036038101906104579190613643565b6122da565b60405161046e969594939291906139ae565b60405180910390f35b610491600480360381019061048c9190613181565b612498565b6040516104a2959493929190613cb7565b60405180910390f35b6104c560048036038101906104c09190613d18565b612618565b6040516104d29190613d61565b60405180910390f35b6104f560048036038101906104f091906138a6565b612661565b005b610511600480360381019061050c91906138a6565b6129b5565b005b61052d60048036038101906105289190613181565b612c46565b60405161053e959493929190613cb7565b60405180910390f35b610561600480360381019061055c9190613643565b612e0d565b005b61056b612f95565b6040516105789190613d61565b60405180910390f35b61059b60048036038101906105969190613181565b612fb9565b6040516105a8919061383f565b60405180910390f35b60008054906101000a900473ffffffffffffffffffffffffffffffffffffffff1673ffffffffffffffffffffffffffffffffffffffff163373ffffffffffffffffffffffffffffffffffffffff161461063f576040517f08c379a000000000000000000000000000000000000000000000000000000000815260040161063690613dee565b60405180910390fd5b6000600460008373ffffffffffffffffffffffffffffffffffffffff1673ffffffffffffffffffffffffffffffffffffffff1681526020019081526020016000209050600081600101805461069390613e3d565b9050116106d5576040517f08c379a00000000000000000000000000000000000000000000000000000000081526004016106cc90613eba565b60405180910390fd5b60018160020160146101000a81548160ff0219169083151502179055507f73d35f4b5dc2339683083dec639ba37f0f5592fc26de0e0603ac5ba2412cd004826040516107219190613d61565b60405180910390a15050565b60008054906101000a900473ffffffffffffffffffffffffffffffffffffffff1673ffffffffffffffffffffffffffffffffffffffff163373ffffffffffffffffffffffffffffffffffffffff16146107bb576040517f08c379a00000000000000000000000000000000000000000000000000000000081526004016107b290613dee565b60405180910390fd5b816000811180156107ce57506001548111155b61080d576040517f08c379a000000000000000000000000000000000000000000000000000000000815260040161080490613f26565b60405180910390fd5b6000825111610851576040517f08c379a000000000000000000000000000000000000000000000000000000000815260040161084890613f92565b60405180910390fd5b600060036000858152602001908152602001600020905080600501600081548092919061087d90613fe1565b91905055506040518060600160405280826005015481526020018481526020016000815250816006016000836005015481526020019081526020016000206000820151816000015560208201518160010190816108da91906141d5565b50604082015181600201559050507fed8911b3df733b7d5f75724158e54478ea12e30f49c9d31b5261879f5b76586f8482600501548560405161091f939291906142a7565b60405180910390a150505050565b6060600060068054905067ffffffffffffffff8111156109505761094f6131ff565b5b60405190808252806020026020018201604052801561098957816020015b610976613012565b81526020019060019003908161096e5790505b50905060005b600680549050811015610c055760046000600683815481106109b4576109b36142e5565b5b9060005260206000200160009054906101000a900473ffffffffffffffffffffffffffffffffffffffff1673ffffffffffffffffffffffffffffffffffffffff1673ffffffffffffffffffffffffffffffffffffffff1681526020019081526020016000206040518060a0016040529081600082018054610a3490613e3d565b80601f0160208091040260200160405190810160405280929190818152602001828054610a6090613e3d565b8015610aad5780601f10610a8257610100808354040283529160200191610aad565b820191906000526020600020905b815481529060010190602001808311610a9057829003601f168201915b50505050508152602001600182018054610ac690613e3d565b80601f0160208091040260200160405190810160405280929190818152602001828054610af290613e3d565b8015610b3f5780601f10610b1457610100808354040283529160200191610b3f565b820191906000526020600020905b815481529060010190602001808311610b2257829003601f168201915b505050505081526020016002820160009054906101000a900473ffffffffffffffffffffffffffffffffffffffff1673ffffffffffffffffffffffffffffffffffffffff1673ffffffffffffffffffffffffffffffffffffffff1681526020016002820160149054906101000a900460ff161515151581526020016002820160159054906101000a900460ff161515151581525050828281518110610be757610be66142e5565b5b60200260200101819052508080610bfd90613fe1565b91505061098f565b508091505090565b60008054906101000a900473ffffffffffffffffffffffffffffffffffffffff1673ffffffffffffffffffffffffffffffffffffffff163373ffffffffffffffffffffffffffffffffffffffff1614610c9b576040517f08c379a0000000000000000000000000000000000000000000000000000000008152600401610c9290613dee565b60405180910390fd5b84600081118015610cae57506001548111155b610ced576040517f08c379a0000000000000000000000000000000000000000000000000000000008152600401610ce490613f26565b60405180910390fd5b600060036000888152602001908152602001600020905080600301544210610d4a576040517f08c379a0000000000000000000000000000000000000000000000000000000008152600401610d4190614360565b60405180910390fd5b838311610d8c576040517f08c379a0000000000000000000000000000000000000000000000000000000008152600401610d83906143cc565b60405180910390fd5b85816001019081610d9d91906141d5565b5084816002019081610daf91906141d5565b5083816003018190555082816004018190555050505050505050565b6060600082600081118015610de257506001548111155b610e21576040517f08c379a0000000000000000000000000000000000000000000000000000000008152600401610e1890613f26565b60405180910390fd5b60006003600086815260200190815260200160002090506000816005015467ffffffffffffffff811115610e5857610e576131ff565b5b604051908082528060200260200182016040528015610e9157816020015b610e7e61305b565b815260200190600190039081610e765790505b5090506000600190505b82600501548111610fa95782600601600082815260200190815260200160002060405180606001604052908160008201548152602001600182018054610ee090613e3d565b80601f0160208091040260200160405190810160405280929190818152602001828054610f0c90613e3d565b8015610f595780601f10610f2e57610100808354040283529160200191610f59565b820191906000526020600020905b815481529060010190602001808311610f3c57829003601f168201915b5050505050815260200160028201548152505082600183610f7a91906143ec565b81518110610f8b57610f8a6142e5565b5b60200260200101819052508080610fa190613fe1565b915050610e9b565b50600082600301544210158015610fc4575082600401544211155b80610fd25750826004015442115b905081819550955050505050915091565b60008054906101000a900473ffffffffffffffffffffffffffffffffffffffff1673ffffffffffffffffffffffffffffffffffffffff163373ffffffffffffffffffffffffffffffffffffffff1614611071576040517f08c379a000000000000000000000000000000000000000000000000000000000815260040161106890613dee565b60405180910390fd5b8260008111801561108457506001548111155b6110c3576040517f08c379a00000000000000000000000000000000000000000000000000000000081526004016110ba90613f26565b60405180910390fd5b6000825111611107576040517f08c379a00000000000000000000000000000000000000000000000000000000081526004016110fe90613f92565b60405180910390fd5b600060036000868152602001908152602001600020905080600301544210611164576040517f08c379a000000000000000000000000000000000000000000000000000000000815260040161115b90614492565b60405180910390fd5b600084118015611178575080600501548411155b6111b7576040517f08c379a00000000000000000000000000000000000000000000000000000000081526004016111ae906144fe565b60405180910390fd5b8281600601600086815260200190815260200160002060010190816111dc91906141d5565b505050505050565b6000600460008373ffffffffffffffffffffffffffffffffffffffff1673ffffffffffffffffffffffffffffffffffffffff16815260200190815260200160002060020160149054906101000a900460ff169050919050565b60608160008111801561125257506001548111155b611291576040517f08c379a000000000000000000000000000000000000000000000000000000000815260040161128890613f26565b60405180910390fd5b60006003600085815260200190815260200160002090506000816005015467ffffffffffffffff8111156112c8576112c76131ff565b5b60405190808252806020026020018201604052801561130157816020015b6112ee61305b565b8152602001906001900390816112e65790505b5090506000600190505b8260050154811161141f5760008360060160008381526020019081526020016000209050806040518060600160405290816000820154815260200160018201805461135590613e3d565b80601f016020809104026020016040519081016040528092919081815260200182805461138190613e3d565b80156113ce5780601f106113a3576101008083540402835291602001916113ce565b820191906000526020600020905b8154815290600101906020018083116113b157829003601f168201915b50505050508152602001600282015481525050836001846113ef91906143ec565b81518110611400576113ff6142e5565b5b602002602001018190525050808061141790613fe1565b91505061130b565b50809350505050919050565b60025481565b6000606060008460008111801561144a57506001548111155b611489576040517f08c379a000000000000000000000000000000000000000000000000000000000815260040161148090613f26565b60405180910390fd5b6000600360008881526020019081526020016000206006016000878152602001908152602001600020905080600001548160010182600201548180546114ce90613e3d565b80601f01602080910402602001604051908101604052809291908181526020018280546114fa90613e3d565b80156115475780601f1061151c57610100808354040283529160200191611547565b820191906000526020600020905b81548152906001019060200180831161152a57829003601f168201915b5050505050915094509450945050509250925092565b60006003600084815260200190815260200160002060070160008373ffffffffffffffffffffffffffffffffffffffff1673ffffffffffffffffffffffffffffffffffffffff16815260200190815260200160002060009054906101000a900460ff16905092915050565b60036020528060005260406000206000915090508060000154908060010180546115f190613e3d565b80601f016020809104026020016040519081016040528092919081815260200182805461161d90613e3d565b801561166a5780601f1061163f5761010080835404028352916020019161166a565b820191906000526020600020905b81548152906001019060200180831161164d57829003601f168201915b50505050509080600201805461167f90613e3d565b80601f01602080910402602001604051908101604052809291908181526020018280546116ab90613e3d565b80156116f85780601f106116cd576101008083540402835291602001916116f8565b820191906000526020600020905b8154815290600101906020018083116116db57829003601f168201915b5050505050908060030154908060040154908060050154905086565b60008054906101000a900473ffffffffffffffffffffffffffffffffffffffff1673ffffffffffffffffffffffffffffffffffffffff163373ffffffffffffffffffffffffffffffffffffffff16146117a2576040517f08c379a000000000000000000000000000000000000000000000000000000000815260040161179990613dee565b60405180910390fd5b806000811180156117b557506001548111155b6117f4576040517f08c379a00000000000000000000000000000000000000000000000000000000081526004016117eb90613f26565b60405180910390fd5b600060036000848152602001908152602001600020905080600301544210611851576040517f08c379a000000000000000000000000000000000000000000000000000000000815260040161184890614360565b60405180910390fd5b6000816005015414611898576040517f08c379a000000000000000000000000000000000000000000000000000000000815260040161188f9061456a565b60405180910390fd5b600360008481526020019081526020016000206000808201600090556001820160006118c4919061307c565b6002820160006118d4919061307c565b6003820160009055600482016000905560058201600090555050505050565b60008054906101000a900473ffffffffffffffffffffffffffffffffffffffff1673ffffffffffffffffffffffffffffffffffffffff163373ffffffffffffffffffffffffffffffffffffffff1614611981576040517f08c379a000000000000000000000000000000000000000000000000000000000815260040161197890613dee565b60405180910390fd5b60008451116119c5576040517f08c379a00000000000000000000000000000000000000000000000000000000081526004016119bc906145d6565b60405180910390fd5b818111611a07576040517f08c379a00000000000000000000000000000000000000000000000000000000081526004016119fe906143cc565b60405180910390fd5b60016000815480929190611a1a90613fe1565b919050555060006003600060015481526020019081526020016000209050600154816000018190555084816001019081611a5491906141d5565b5083816002019081611a6691906141d5565b508281600301819055508181600401819055507f52be7c4e77b4de76b7607d621492061fe13b58597e72dfb5e51ab8f6187ed14160015486604051611aac9291906145f6565b60405180910390a15050505050565b6060600060015467ffffffffffffffff811115611adb57611ada6131ff565b5b604051908082528060200260200182016040528015611b1457816020015b611b016130bc565b815260200190600190039081611af95790505b5090506000600190505b6001548111611cd15760006003600083815260200190815260200160002090506040518060c0016040528082600001548152602001826001018054611b6290613e3d565b80601f0160208091040260200160405190810160405280929190818152602001828054611b8e90613e3d565b8015611bdb5780601f10611bb057610100808354040283529160200191611bdb565b820191906000526020600020905b815481529060010190602001808311611bbe57829003601f168201915b50505050508152602001826002018054611bf490613e3d565b80601f0160208091040260200160405190810160405280929190818152602001828054611c2090613e3d565b8015611c6d5780601f10611c4257610100808354040283529160200191611c6d565b820191906000526020600020905b815481529060010190602001808311611c5057829003601f168201915b505050505081526020018260030154815260200182600401548152602001826005015481525083600184611ca191906143ec565b81518110611cb257611cb16142e5565b5b6020026020010181905250508080611cc990613fe1565b915050611b1e565b508091505090565b606081600081118015611cee57506001548111155b611d2d576040517f08c379a0000000000000000000000000000000000000000000000000000000008152600401611d2490613f26565b60405180910390fd5b60006003600085815260200190815260200160002090506000816005015467ffffffffffffffff811115611d6457611d636131ff565b5b604051908082528060200260200182016040528015611d9d57816020015b611d8a61305b565b815260200190600190039081611d825790505b5090506000600190505b82600501548111611eb55782600601600082815260200190815260200160002060405180606001604052908160008201548152602001600182018054611dec90613e3d565b80601f0160208091040260200160405190810160405280929190818152602001828054611e1890613e3d565b8015611e655780601f10611e3a57610100808354040283529160200191611e65565b820191906000526020600020905b815481529060010190602001808311611e4857829003601f168201915b5050505050815260200160028201548152505082600183611e8691906143ec565b81518110611e9757611e966142e5565b5b60200260200101819052508080611ead90613fe1565b915050611da7565b50809350505050919050565b6000825111611f05576040517f08c379a0000000000000000000000000000000000000000000000000000000008152600401611efc90614672565b60405180910390fd5b6000815111611f49576040517f08c379a0000000000000000000000000000000000000000000000000000000008152600401611f40906146de565b60405180910390fd5b600073ffffffffffffffffffffffffffffffffffffffff16600582604051611f71919061473a565b908152602001604051809103902060009054906101000a900473ffffffffffffffffffffffffffffffffffffffff1673ffffffffffffffffffffffffffffffffffffffff1614611ff6576040517f08c379a0000000000000000000000000000000000000000000000000000000008152600401611fed9061479d565b60405180910390fd5b6000600460003373ffffffffffffffffffffffffffffffffffffffff1673ffffffffffffffffffffffffffffffffffffffff168152602001908152602001600020600101805461204590613e3d565b905014612087576040517f08c379a000000000000000000000000000000000000000000000000000000000815260040161207e90614809565b60405180910390fd5b6040518060a001604052808381526020018281526020013373ffffffffffffffffffffffffffffffffffffffff16815260200160001515815260200160001515815250600460003373ffffffffffffffffffffffffffffffffffffffff1673ffffffffffffffffffffffffffffffffffffffff168152602001908152602001600020600082015181600001908161211e91906141d5565b50602082015181600101908161213491906141d5565b5060408201518160020160006101000a81548173ffffffffffffffffffffffffffffffffffffffff021916908373ffffffffffffffffffffffffffffffffffffffff16021790555060608201518160020160146101000a81548160ff02191690831515021790555060808201518160020160156101000a81548160ff021916908315150217905550905050336005826040516121d0919061473a565b908152602001604051809103902060006101000a81548173ffffffffffffffffffffffffffffffffffffffff021916908373ffffffffffffffffffffffffffffffffffffffff1602179055506006339080600181540180825580915050600190039060005260206000200160009091909190916101000a81548173ffffffffffffffffffffffffffffffffffffffff021916908373ffffffffffffffffffffffffffffffffffffffff1602179055506002600081548092919061229290613fe1565b91905055507fffeb7702be7dcd8fee170d954b70afb9a7c78f7f5cff232d037e7b9d8243356a33826040516122c8929190614829565b60405180910390a15050565b60015481565b60006060806000806000866000811180156122f757506001548111155b612336576040517f08c379a000000000000000000000000000000000000000000000000000000000815260040161232d90613f26565b60405180910390fd5b6000600360008a815260200190815260200160002090508060000154816001018260020183600301548460040154856005015484805461237590613e3d565b80601f01602080910402602001604051908101604052809291908181526020018280546123a190613e3d565b80156123ee5780601f106123c3576101008083540402835291602001916123ee565b820191906000526020600020905b8154815290600101906020018083116123d157829003601f168201915b5050505050945083805461240190613e3d565b80601f016020809104026020016040519081016040528092919081815260200182805461242d90613e3d565b801561247a5780601f1061244f5761010080835404028352916020019161247a565b820191906000526020600020905b81548152906001019060200180831161245d57829003601f168201915b50505050509350975097509750975097509750505091939550919395565b60046020528060005260406000206000915090508060000180546124bb90613e3d565b80601f01602080910402602001604051908101604052809291908181526020018280546124e790613e3d565b80156125345780601f1061250957610100808354040283529160200191612534565b820191906000526020600020905b81548152906001019060200180831161251757829003601f168201915b50505050509080600101805461254990613e3d565b80601f016020809104026020016040519081016040528092919081815260200182805461257590613e3d565b80156125c25780601f10612597576101008083540402835291602001916125c2565b820191906000526020600020905b8154815290600101906020018083116125a557829003601f168201915b5050505050908060020160009054906101000a900473ffffffffffffffffffffffffffffffffffffffff16908060020160149054906101000a900460ff16908060020160159054906101000a900460ff16905085565b6005818051602081018201805184825260208301602085012081835280955050505050506000915054906101000a900473ffffffffffffffffffffffffffffffffffffffff1681565b8160008111801561267457506001548111155b6126b3576040517f08c379a00000000000000000000000000000000000000000000000000000000081526004016126aa90613f26565b60405180910390fd5b60006003600085815260200190815260200160002090506000600460003373ffffffffffffffffffffffffffffffffffffffff1673ffffffffffffffffffffffffffffffffffffffff16815260200190815260200160002090508060020160149054906101000a900460ff1661275e576040517f08c379a0000000000000000000000000000000000000000000000000000000008152600401612755906148a5565b60405180910390fd5b81600301544210156127a5576040517f08c379a000000000000000000000000000000000000000000000000000000000815260040161279c90614911565b60405180910390fd5b81600401544211156127ec576040517f08c379a00000000000000000000000000000000000000000000000000000000081526004016127e39061497d565b60405180910390fd5b8160070160003373ffffffffffffffffffffffffffffffffffffffff1673ffffffffffffffffffffffffffffffffffffffff16815260200190815260200160002060009054906101000a900460ff161561287b576040517f08c379a000000000000000000000000000000000000000000000000000000000815260040161287290614a0f565b60405180910390fd5b60008411801561288f575081600501548411155b6128ce576040517f08c379a00000000000000000000000000000000000000000000000000000000081526004016128c5906144fe565b60405180910390fd5b81600601600085815260200190815260200160002060020160008154809291906128f790613fe1565b919050555060018260070160003373ffffffffffffffffffffffffffffffffffffffff1673ffffffffffffffffffffffffffffffffffffffff16815260200190815260200160002060006101000a81548160ff02191690831515021790555060018160020160156101000a81548160ff0219169083151502179055507fe7ee74ca1f4bb1b82b14f87794c45b3e59c39e372b862fb97a6316b43355b69e8533866040516129a693929190614a2f565b60405180910390a15050505050565b60008054906101000a900473ffffffffffffffffffffffffffffffffffffffff1673ffffffffffffffffffffffffffffffffffffffff163373ffffffffffffffffffffffffffffffffffffffff1614612a43576040517f08c379a0000000000000000000000000000000000000000000000000000000008152600401612a3a90613dee565b60405180910390fd5b81600081118015612a5657506001548111155b612a95576040517f08c379a0000000000000000000000000000000000000000000000000000000008152600401612a8c90613f26565b60405180910390fd5b600060036000858152602001908152602001600020905080600301544210612af2576040517f08c379a0000000000000000000000000000000000000000000000000000000008152600401612ae990614ad8565b60405180910390fd5b600083118015612b06575080600501548311155b612b45576040517f08c379a0000000000000000000000000000000000000000000000000000000008152600401612b3c906144fe565b60405180910390fd5b60008390505b8160050154811015612be957816006016000600183612b6a9190614af8565b81526020019081526020016000208260060160008381526020019081526020016000206000820154816000015560018201816001019081612bab9190614b42565b506002820154816002015590505080826006016000838152602001908152602001600020600001819055508080612be190613fe1565b915050612b4b565b5080600601600082600501548152602001908152602001600020600080820160009055600182016000612c1c919061307c565b60028201600090555050806005016000815480929190612c3b90614c2a565b919050555050505050565b606080600080600080600460008873ffffffffffffffffffffffffffffffffffffffff1673ffffffffffffffffffffffffffffffffffffffff168152602001908152602001600020905080600001816001018260020160009054906101000a900473ffffffffffffffffffffffffffffffffffffffff168360020160149054906101000a900460ff168460020160159054906101000a900460ff16848054612ced90613e3d565b80601f0160208091040260200160405190810160405280929190818152602001828054612d1990613e3d565b8015612d665780601f10612d3b57610100808354040283529160200191612d66565b820191906000526020600020905b815481529060010190602001808311612d4957829003601f168201915b50505050509450838054612d7990613e3d565b80601f0160208091040260200160405190810160405280929190818152602001828054612da590613e3d565b8015612df25780601f10612dc757610100808354040283529160200191612df2565b820191906000526020600020905b815481529060010190602001808311612dd557829003601f168201915b50505050509350955095509550955095505091939590929450565b60008054906101000a900473ffffffffffffffffffffffffffffffffffffffff1673ffffffffffffffffffffffffffffffffffffffff163373ffffffffffffffffffffffffffffffffffffffff1614612e9b576040517f08c379a0000000000000000000000000000000000000000000000000000000008152600401612e9290613dee565b60405180910390fd5b80600081118015612eae57506001548111155b612eed576040517f08c379a0000000000000000000000000000000000000000000000000000000008152600401612ee490613f26565b60405180910390fd5b600060036000848152602001908152602001600020905080600401544210612f4a576040517f08c379a0000000000000000000000000000000000000000000000000000000008152600401612f4190614c9f565b60405180910390fd5b4281600401819055507f32e2c12037f9600b91a766ce53eab6909f3bdb865851cd9a8c7fafbdf249a9ce838260040154604051612f88929190614cbf565b60405180910390a1505050565b60008054906101000a900473ffffffffffffffffffffffffffffffffffffffff1681565b6000600460008373ffffffffffffffffffffffffffffffffffffffff1673ffffffffffffffffffffffffffffffffffffffff16815260200190815260200160002060020160159054906101000a900460ff169050919050565b6040518060a001604052806060815260200160608152602001600073ffffffffffffffffffffffffffffffffffffffff1681526020016000151581526020016000151581525090565b60405180606001604052806000815260200160608152602001600081525090565b50805461308890613e3d565b6000825580601f1061309a57506130b9565b601f0160209004906000526020600020908101906130b891906130f2565b5b50565b6040518060c001604052806000815260200160608152602001606081526020016000815260200160008152602001600081525090565b5b8082111561310b5760008160009055506001016130f3565b5090565b6000604051905090565b600080fd5b600080fd5b600073ffffffffffffffffffffffffffffffffffffffff82169050919050565b600061314e82613123565b9050919050565b61315e81613143565b811461316957600080fd5b50565b60008135905061317b81613155565b92915050565b60006020828403121561319757613196613119565b5b60006131a58482850161316c565b91505092915050565b6000819050919050565b6131c1816131ae565b81146131cc57600080fd5b50565b6000813590506131de816131b8565b92915050565b600080fd5b600080fd5b6000601f19601f8301169050919050565b7f4e487b7100000000000000000000000000000000000000000000000000000000600052604160045260246000fd5b613237826131ee565b810181811067ffffffffffffffff82111715613256576132556131ff565b5b80604052505050565b600061326961310f565b9050613275828261322e565b919050565b600067ffffffffffffffff821115613295576132946131ff565b5b61329e826131ee565b9050602081019050919050565b82818337600083830152505050565b60006132cd6132c88461327a565b61325f565b9050828152602081018484840111156132e9576132e86131e9565b5b6132f48482856132ab565b509392505050565b600082601f830112613311576133106131e4565b5b81356133218482602086016132ba565b91505092915050565b6000806040838503121561334157613340613119565b5b600061334f858286016131cf565b925050602083013567ffffffffffffffff8111156133705761336f61311e565b5b61337c858286016132fc565b9150509250929050565b600081519050919050565b600082825260208201905092915050565b6000819050602082019050919050565b600081519050919050565b600082825260208201905092915050565b60005b838110156133ec5780820151818401526020810190506133d1565b60008484015250505050565b6000613403826133b2565b61340d81856133bd565b935061341d8185602086016133ce565b613426816131ee565b840191505092915050565b61343a81613143565b82525050565b60008115159050919050565b61345581613440565b82525050565b600060a083016000830151848203600086015261347882826133f8565b9150506020830151848203602086015261349282826133f8565b91505060408301516134a76040860182613431565b5060608301516134ba606086018261344c565b5060808301516134cd608086018261344c565b508091505092915050565b60006134e4838361345b565b905092915050565b6000602082019050919050565b600061350482613386565b61350e8185613391565b935083602082028501613520856133a2565b8060005b8581101561355c578484038952815161353d85826134d8565b9450613548836134ec565b925060208a01995050600181019050613524565b50829750879550505050505092915050565b6000602082019050818103600083015261358881846134f9565b905092915050565b600080600080600060a086880312156135ac576135ab613119565b5b60006135ba888289016131cf565b955050602086013567ffffffffffffffff8111156135db576135da61311e565b5b6135e7888289016132fc565b945050604086013567ffffffffffffffff8111156136085761360761311e565b5b613614888289016132fc565b9350506060613625888289016131cf565b9250506080613636888289016131cf565b9150509295509295909350565b60006020828403121561365957613658613119565b5b6000613667848285016131cf565b91505092915050565b600081519050919050565b600082825260208201905092915050565b6000819050602082019050919050565b6136a5816131ae565b82525050565b60006060830160008301516136c3600086018261369c565b50602083015184820360208601526136db82826133f8565b91505060408301516136f0604086018261369c565b508091505092915050565b600061370783836136ab565b905092915050565b6000602082019050919050565b600061372782613670565b613731818561367b565b9350836020820285016137438561368c565b8060005b8581101561377f578484038952815161376085826136fb565b945061376b8361370f565b925060208a01995050600181019050613747565b50829750879550505050505092915050565b61379a81613440565b82525050565b600060408201905081810360008301526137ba818561371c565b90506137c96020830184613791565b9392505050565b6000806000606084860312156137e9576137e8613119565b5b60006137f7868287016131cf565b9350506020613808868287016131cf565b925050604084013567ffffffffffffffff8111156138295761382861311e565b5b613835868287016132fc565b9150509250925092565b60006020820190506138546000830184613791565b92915050565b60006020820190508181036000830152613874818461371c565b905092915050565b613885816131ae565b82525050565b60006020820190506138a0600083018461387c565b92915050565b600080604083850312156138bd576138bc613119565b5b60006138cb858286016131cf565b92505060206138dc858286016131cf565b9150509250929050565b600082825260208201905092915050565b6000613902826133b2565b61390c81856138e6565b935061391c8185602086016133ce565b613925816131ee565b840191505092915050565b6000606082019050613945600083018661387c565b818103602083015261395781856138f7565b9050613966604083018461387c565b949350505050565b6000806040838503121561398557613984613119565b5b6000613993858286016131cf565b92505060206139a48582860161316c565b9150509250929050565b600060c0820190506139c3600083018961387c565b81810360208301526139d581886138f7565b905081810360408301526139e981876138f7565b90506139f8606083018661387c565b613a05608083018561387c565b613a1260a083018461387c565b979650505050505050565b60008060008060808587031215613a3757613a36613119565b5b600085013567ffffffffffffffff811115613a5557613a5461311e565b5b613a61878288016132fc565b945050602085013567ffffffffffffffff811115613a8257613a8161311e565b5b613a8e878288016132fc565b9350506040613a9f878288016131cf565b9250506060613ab0878288016131cf565b91505092959194509250565b600081519050919050565b600082825260208201905092915050565b6000819050602082019050919050565b600060c083016000830151613b00600086018261369c565b5060208301518482036020860152613b1882826133f8565b91505060408301518482036040860152613b3282826133f8565b9150506060830151613b47606086018261369c565b506080830151613b5a608086018261369c565b5060a0830151613b6d60a086018261369c565b508091505092915050565b6000613b848383613ae8565b905092915050565b6000602082019050919050565b6000613ba482613abc565b613bae8185613ac7565b935083602082028501613bc085613ad8565b8060005b85811015613bfc5784840389528151613bdd8582613b78565b9450613be883613b8c565b925060208a01995050600181019050613bc4565b50829750879550505050505092915050565b60006020820190508181036000830152613c288184613b99565b905092915050565b60008060408385031215613c4757613c46613119565b5b600083013567ffffffffffffffff811115613c6557613c6461311e565b5b613c71858286016132fc565b925050602083013567ffffffffffffffff811115613c9257613c9161311e565b5b613c9e858286016132fc565b9150509250929050565b613cb181613143565b82525050565b600060a0820190508181036000830152613cd181886138f7565b90508181036020830152613ce581876138f7565b9050613cf46040830186613ca8565b613d016060830185613791565b613d0e6080830184613791565b9695505050505050565b600060208284031215613d2e57613d2d613119565b5b600082013567ffffffffffffffff811115613d4c57613d4b61311e565b5b613d58848285016132fc565b91505092915050565b6000602082019050613d766000830184613ca8565b92915050565b7f4f6e6c7920617574686f72697a656420757365722063616e20706572666f726d60008201527f207468697320616374696f6e0000000000000000000000000000000000000000602082015250565b6000613dd8602c836138e6565b9150613de382613d7c565b604082019050919050565b60006020820190508181036000830152613e0781613dcb565b9050919050565b7f4e487b7100000000000000000000000000000000000000000000000000000000600052602260045260246000fd5b60006002820490506001821680613e5557607f821691505b602082108103613e6857613e67613e0e565b5b50919050565b7f566f746572206e6f742072656769737465726564000000000000000000000000600082015250565b6000613ea46014836138e6565b9150613eaf82613e6e565b602082019050919050565b60006020820190508181036000830152613ed381613e97565b9050919050565b7f456c656374696f6e20646f6573206e6f74206578697374000000000000000000600082015250565b6000613f106017836138e6565b9150613f1b82613eda565b602082019050919050565b60006020820190508181036000830152613f3f81613f03565b9050919050565b7f43616e646964617465206e616d65207265717569726564000000000000000000600082015250565b6000613f7c6017836138e6565b9150613f8782613f46565b602082019050919050565b60006020820190508181036000830152613fab81613f6f565b9050919050565b7f4e487b7100000000000000000000000000000000000000000000000000000000600052601160045260246000fd5b6000613fec826131ae565b91507fffffffffffffffffffffffffffffffffffffffffffffffffffffffffffffffff820361401e5761401d613fb2565b5b600182019050919050565b60008190508160005260206000209050919050565b60006020601f8301049050919050565b600082821b905092915050565b60006008830261408b7fffffffffffffffffffffffffffffffffffffffffffffffffffffffffffffffff8261404e565b614095868361404e565b95508019841693508086168417925050509392505050565b6000819050919050565b60006140d26140cd6140c8846131ae565b6140ad565b6131ae565b9050919050565b6000819050919050565b6140ec836140b7565b6141006140f8826140d9565b84845461405b565b825550505050565b600090565b614115614108565b6141208184846140e3565b505050565b5b818110156141445761413960008261410d565b600181019050614126565b5050565b601f8211156141895761415a81614029565b6141638461403e565b81016020851015614172578190505b61418661417e8561403e565b830182614125565b50505b505050565b600082821c905092915050565b60006141ac6000198460080261418e565b1980831691505092915050565b60006141c5838361419b565b9150826002028217905092915050565b6141de826133b2565b67ffffffffffffffff8111156141f7576141f66131ff565b5b6142018254613e3d565b61420c828285614148565b600060209050601f83116001811461423f576000841561422d578287015190505b61423785826141b9565b86555061429f565b601f19841661424d86614029565b60005b8281101561427557848901518255600182019150602085019450602081019050614250565b86831015614292578489015161428e601f89168261419b565b8355505b6001600288020188555050505b505050505050565b60006060820190506142bc600083018661387c565b6142c9602083018561387c565b81810360408301526142db81846138f7565b9050949350505050565b7f4e487b7100000000000000000000000000000000000000000000000000000000600052603260045260246000fd5b7f456c656374696f6e20616c726561647920737461727465640000000000000000600082015250565b600061434a6018836138e6565b915061435582614314565b602082019050919050565b600060208201905081810360008301526143798161433d565b9050919050565b7f496e76616c69642074696d652072616e67650000000000000000000000000000600082015250565b60006143b66012836138e6565b91506143c182614380565b602082019050919050565b600060208201905081810360008301526143e5816143a9565b9050919050565b60006143f7826131ae565b9150614402836131ae565b925082820390508181111561441a57614419613fb2565b5b92915050565b7f43616e6e6f74206564697420656c656374696f6e20616c72656164792073746160008201527f7274656400000000000000000000000000000000000000000000000000000000602082015250565b600061447c6024836138e6565b915061448782614420565b604082019050919050565b600060208201905081810360008301526144ab8161446f565b9050919050565b7f496e76616c69642063616e646964617465000000000000000000000000000000600082015250565b60006144e86011836138e6565b91506144f3826144b2565b602082019050919050565b60006020820190508181036000830152614517816144db565b9050919050565b7f456c656374696f6e20616c7265616479206861732063616e6469646174657300600082015250565b6000614554601f836138e6565b915061455f8261451e565b602082019050919050565b6000602082019050818103600083015261458381614547565b9050919050565b7f5469746c65207265717569726564000000000000000000000000000000000000600082015250565b60006145c0600e836138e6565b91506145cb8261458a565b602082019050919050565b600060208201905081810360008301526145ef816145b3565b9050919050565b600060408201905061460b600083018561387c565b818103602083015261461d81846138f7565b90509392505050565b7f4e616d6520726571756972656400000000000000000000000000000000000000600082015250565b600061465c600d836138e6565b915061466782614626565b602082019050919050565b6000602082019050818103600083015261468b8161464f565b9050919050565b7f4d6174726963206e756d62657220726571756972656400000000000000000000600082015250565b60006146c86016836138e6565b91506146d382614692565b602082019050919050565b600060208201905081810360008301526146f7816146bb565b9050919050565b600081905092915050565b6000614714826133b2565b61471e81856146fe565b935061472e8185602086016133ce565b80840191505092915050565b60006147468284614709565b915081905092915050565b7f4d6174726963206e756d62657220616c72656164792072656769737465726564600082015250565b60006147876020836138e6565b915061479282614751565b602082019050919050565b600060208201905081810360008301526147b68161477a565b9050919050565b7f416c726561647920726567697374657265640000000000000000000000000000600082015250565b60006147f36012836138e6565b91506147fe826147bd565b602082019050919050565b60006020820190508181036000830152614822816147e6565b9050919050565b600060408201905061483e6000830185613ca8565b818103602083015261485081846138f7565b90509392505050565b7f566f746572206e6f742076657269666965640000000000000000000000000000600082015250565b600061488f6012836138e6565b915061489a82614859565b602082019050919050565b600060208201905081810360008301526148be81614882565b9050919050565b7f456c656374696f6e20686173206e6f7420737461727465640000000000000000600082015250565b60006148fb6018836138e6565b9150614906826148c5565b602082019050919050565b6000602082019050818103600083015261492a816148ee565b9050919050565b7f456c656374696f6e2068617320656e6465640000000000000000000000000000600082015250565b60006149676012836138e6565b915061497282614931565b602082019050919050565b600060208201905081810360008301526149968161495a565b9050919050565b7f596f7520616c726561647920766f74656420696e207468697320656c6563746960008201527f6f6e000000000000000000000000000000000000000000000000000000000000602082015250565b60006149f96022836138e6565b9150614a048261499d565b604082019050919050565b60006020820190508181036000830152614a28816149ec565b9050919050565b6000606082019050614a44600083018661387c565b614a516020830185613ca8565b614a5e604083018461387c565b949350505050565b7f43616e6e6f742064656c65746520656c656374696f6e20616c7265616479207360008201527f7461727465640000000000000000000000000000000000000000000000000000602082015250565b6000614ac26026836138e6565b9150614acd82614a66565b604082019050919050565b60006020820190508181036000830152614af181614ab5565b9050919050565b6000614b03826131ae565b9150614b0e836131ae565b9250828201905080821115614b2657614b25613fb2565b5b92915050565b600081549050614b3b81613e3d565b9050919050565b818103614b50575050614c28565b614b5982614b2c565b67ffffffffffffffff811115614b7257614b716131ff565b5b614b7c8254613e3d565b614b87828285614148565b6000601f831160018114614bb65760008415614ba4578287015490505b614bae85826141b9565b865550614c21565b601f198416614bc487614029565b9650614bcf86614029565b60005b82811015614bf757848901548255600182019150600185019450602081019050614bd2565b86831015614c145784890154614c10601f89168261419b565b8355505b6001600288020188555050505b5050505050505b565b6000614c35826131ae565b915060008203614c4857614c47613fb2565b5b600182039050919050565b7f456c656374696f6e20616c726561647920656e64656400000000000000000000600082015250565b6000614c896016836138e6565b9150614c9482614c53565b602082019050919050565b60006020820190508181036000830152614cb881614c7c565b9050919050565b6000604082019050614cd4600083018561387c565b614ce1602083018461387c565b939250505056fea2646970667358221220d2b53e30f252e88bce89e11fab67f0e11fd380debc11dc4395af3ecf8eaec83e64736f6c63430008130033",
  "linkReferences": {},
  "deployedLinkReferences": {}
}