{
  "_format": "hh-sol-artifact-1",
  "contractName": "ElectionManager",
  "sourceName": "contracts/ElectionManager.sol",
  "abi": [
    {
      "inputs": [],
      "stateMutability": "nonpayable",
      "type": "constructor"
    },
    {
      "anonymous": false,
      "inputs": [
        {
          "indexed": false,
          "internalType": "uint256",
          "name": "electionId",
          "type": "uint256"
        },
        {
          "indexed": false,
          "internalType": "uint256",
          "name": "candidateId",
          "type": "uint256"
        },
        {
          "indexed": false,
          "internalType": "string",
          "name": "name",
          "type": "string"
        }
      ],
      "name": "CandidateAdded",
      "type": "event"
    },
    {
      "anonymous": false,
      "inputs": [
        {
          "indexed": false,
          "internalType": "uint256",
          "name": "electionId",
          "type": "uint256"
        },
        {
          "indexed": false,
          "internalType": "string",
          "name": "title",
          "type": "string"
        }
      ],
      "name": "ElectionCreated",
      "type": "event"
    },
    {
      "anonymous": false,
      "inputs": [
        {
          "indexed": false,
          "internalType": "uint256",
          "name": "electionId",
          "type": "uint256"
        },
        {
          "indexed": false,
          "internalType": "uint256",
          "name": "endTime",
          "type": "uint256"
        }
      ],
      "name": "ElectionEnded",
      "type": "event"
    },
    {
      "anonymous": false,
      "inputs": [
        {
          "indexed": false,
          "internalType": "uint256",
          "name": "electionId",
          "type": "uint256"
        },
        {
          "indexed": false,
          "internalType": "address",
          "name": "voter",
          "type": "address"
        },
        {
          "indexed": false,
          "internalType": "uint256",
          "name": "candidateId",
          "type": "uint256"
        }
      ],
      "name": "VoteCasted",
      "type": "event"
    },
    {
      "anonymous": false,
      "inputs": [
        {
          "indexed": false,
          "internalType": "address",
          "name": "voter",
          "type": "address"
        },
        {
          "indexed": false,
          "internalType": "string",
          "name": "matricNo",
          "type": "string"
        }
      ],
      "name": "VoterRegistered",
      "type": "event"
    },
    {
      "anonymous": false,
      "inputs": [
        {
          "indexed": false,
          "internalType": "address",
          "name": "voter",
          "type": "address"
        }
      ],
      "name": "VoterVerified",
      "type": "event"
    },
    {
      "inputs": [
        {
          "internalType": "uint256",
          "name": "_electionId",
          "type": "uint256"
        },
        {
          "internalType": "string",
          "name": "_name",
          "type": "string"
        }
      ],
      "name": "addCandidate",
      "outputs": [],
      "stateMutability": "nonpayable",
      "type": "function"
    },
    {
      "inputs": [],
      "name": "admin",
      "outputs": [
        {
          "internalType": "address",
          "name": "",
          "type": "address"
        }
      ],
      "stateMutability": "view",
      "type": "function"
    },
    {
      "inputs": [
        {
          "internalType": "string",
          "name": "_title",
          "type": "string"
        },
        {
          "internalType": "string",
          "name": "_description",
          "type": "string"
        },
        {
          "internalType": "uint256",
          "name": "_startTime",
          "type": "uint256"
        },
        {
          "internalType": "uint256",
          "name": "_endTime",
          "type": "uint256"
        }
      ],
      "name": "createElection",
      "outputs": [],
      "stateMutability": "nonpayable",
      "type": "function"
    },
    {
      "inputs": [
        {
          "internalType": "uint256",
          "name": "_electionId",
          "type": "uint256"
        }
      ],
      "name": "deleteElection",
      "outputs": [],
      "stateMutability": "nonpayable",
      "type": "function"
    },
    {
      "inputs": [],
      "name": "electionCount",
      "outputs": [
        {
          "internalType": "uint256",
          "name": "",
          "type": "uint256"
        }
      ],
      "stateMutability": "view",
      "type": "function"
    },
    {
      "inputs": [
        {
          "internalType": "uint256",
          "name": "",
          "type": "uint256"
        }
      ],
      "name": "elections",
      "outputs": [
        {
          "internalType": "uint256",
          "name": "id",
          "type": "uint256"
        },
        {
          "internalType": "string",
          "name": "title",
          "type": "string"
        },
        {
          "internalType": "string",
          "name": "description",
          "type": "string"
        },
        {
          "internalType": "uint256",
          "name": "startTime",
          "type": "uint256"
        },
        {
          "internalType": "uint256",
          "name": "endTime",
          "type": "uint256"
        },
        {
          "internalType": "uint256",
          "name": "candidateCount",
          "type": "uint256"
        }
      ],
      "stateMutability": "view",
      "type": "function"
    },
    {
      "inputs": [
        {
          "internalType": "uint256",
          "name": "_electionId",
          "type": "uint256"
        }
      ],
      "name": "endElectionEarly",
      "outputs": [],
      "stateMutability": "nonpayable",
      "type": "function"
    },
    {
      "inputs": [],
      "name": "getAllElections",
      "outputs": [
        {
          "components": [
            {
              "internalType": "uint256",
              "name": "id",
              "type": "uint256"
            },
            {
              "internalType": "string",
              "name": "title",
              "type": "string"
            },
            {
              "internalType": "string",
              "name": "description",
              "type": "string"
            },
            {
              "internalType": "uint256",
              "name": "startTime",
              "type": "uint256"
            },
            {
              "internalType": "uint256",
              "name": "endTime",
              "type": "uint256"
            },
            {
              "internalType": "uint256",
              "name": "candidateCount",
              "type": "uint256"
            }
          ],
          "internalType": "struct ElectionManager.ElectionSummary[]",
          "name": "",
          "type": "tuple[]"
        }
      ],
      "stateMutability": "view",
      "type": "function"
    },
    {
      "inputs": [],
      "name": "getAllVoters",
      "outputs": [
        {
          "components": [
            {
              "internalType": "string",
              "name": "name",
              "type": "string"
            },
            {
              "internalType": "string",
              "name": "matricNo",
              "type": "string"
            },
            {
              "internalType": "address",
              "name": "wallet",
              "type": "address"
            },
            {
              "internalType": "bool",
              "name": "isVerified",
              "type": "bool"
            },
            {
              "internalType": "bool",
              "name": "hasVoted",
              "type": "bool"
            }
          ],
          "internalType": "struct ElectionManager.Voter[]",
          "name": "",
          "type": "tuple[]"
        }
      ],
      "stateMutability": "view",
      "type": "function"
    },
    {
      "inputs": [
        {
          "internalType": "uint256",
          "name": "_electionId",
          "type": "uint256"
        },
        {
          "internalType": "uint256",
          "name": "_candidateId",
          "type": "uint256"
        }
      ],
      "name": "getCandidate",
      "outputs": [
        {
          "internalType": "uint256",
          "name": "",
          "type": "uint256"
        },
        {
          "internalType": "string",
          "name": "",
          "type": "string"
        },
        {
          "internalType": "uint256",
          "name": "",
          "type": "uint256"
        }
      ],
      "stateMutability": "view",
      "type": "function"
    },
    {
      "inputs": [
        {
          "internalType": "uint256",
          "name": "_electionId",
          "type": "uint256"
        }
      ],
      "name": "getCandidates",
      "outputs": [
        {
          "components": [
            {
              "internalType": "uint256",
              "name": "id",
              "type": "uint256"
            },
            {
              "internalType": "string",
              "name": "name",
              "type": "string"
            },
            {
              "internalType": "uint256",
              "name": "voteCount",
              "type": "uint256"
            }
          ],
          "internalType": "struct ElectionManager.Candidate[]",
          "name": "",
          "type": "tuple[]"
        }
      ],
      "stateMutability": "view",
      "type": "function"
    },
    {
      "inputs": [
        {
          "internalType": "uint256",
          "name": "_id",
          "type": "uint256"
        }
      ],
      "name": "getElection",
      "outputs": [
        {
          "internalType": "uint256",
          "name": "id",
          "type": "uint256"
        },
        {
          "internalType": "string",
          "name": "title",
          "type": "string"
        },
        {
          "internalType": "string",
          "name": "description",
          "type": "string"
        },
        {
          "internalType": "uint256",
          "name": "startTime",
          "type": "uint256"
        },
        {
          "internalType": "uint256",
          "name": "endTime",
          "type": "uint256"
        },
        {
          "internalType": "uint256",
          "name": "candidateCount",
          "type": "uint256"
        }
      ],
      "stateMutability": "view",
      "type": "function"
    },
    {
      "inputs": [
        {
          "internalType": "uint256",
          "name": "_electionId",
          "type": "uint256"
        }
      ],
      "name": "getResults",
      "outputs": [
        {
          "components": [
            {
              "internalType": "uint256",
              "name": "id",
              "type": "uint256"
            },
            {
              "internalType": "string",
              "name": "name",
              "type": "string"
            },
            {
              "internalType": "uint256",
              "name": "voteCount",
              "type": "uint256"
            }
          ],
          "internalType": "struct ElectionManager.Candidate[]",
          "name": "",
          "type": "tuple[]"
        }
      ],
      "stateMutability": "view",
      "type": "function"
    },
    {
      "inputs": [
        {
          "internalType": "address",
          "name": "_wallet",
          "type": "address"
        }
      ],
      "name": "getVoter",
      "outputs": [
        {
          "internalType": "string",
          "name": "name",
          "type": "string"
        },
        {
          "internalType": "string",
          "name": "matricNo",
          "type": "string"
        },
        {
          "internalType": "address",
          "name": "wallet",
          "type": "address"
        },
        {
          "internalType": "bool",
          "name": "isVerified",
          "type": "bool"
        },
        {
          "internalType": "bool",
          "name": "hasVoted",
          "type": "bool"
        }
      ],
      "stateMutability": "view",
      "type": "function"
    },
    {
      "inputs": [
        {
          "internalType": "address",
          "name": "_wallet",
          "type": "address"
        }
      ],
      "name": "hasVoterVoted",
      "outputs": [
        {
          "internalType": "bool",
          "name": "",
          "type": "bool"
        }
      ],
      "stateMutability": "view",
      "type": "function"
    },
    {
      "inputs": [
        {
          "internalType": "address",
          "name": "_wallet",
          "type": "address"
        }
      ],
      "name": "isVoterVerified",
      "outputs": [
        {
          "internalType": "bool",
          "name": "",
          "type": "bool"
        }
      ],
      "stateMutability": "view",
      "type": "function"
    },
    {
      "inputs": [
        {
          "internalType": "string",
          "name": "",
          "type": "string"
        }
      ],
      "name": "matricToWallet",
      "outputs": [
        {
          "internalType": "address",
          "name": "",
          "type": "address"
        }
      ],
      "stateMutability": "view",
      "type": "function"
    },
    {
      "inputs": [
        {
          "internalType": "string",
          "name": "_name",
          "type": "string"
        },
        {
          "internalType": "string",
          "name": "_matricNo",
          "type": "string"
        }
      ],
      "name": "registerVoter",
      "outputs": [],
      "stateMutability": "nonpayable",
      "type": "function"
    },
    {
      "inputs": [
        {
          "internalType": "uint256",
          "name": "_electionId",
          "type": "uint256"
        },
        {
          "internalType": "string",
          "name": "_title",
          "type": "string"
        },
        {
          "internalType": "string",
          "name": "_description",
          "type": "string"
        },
        {
          "internalType": "uint256",
          "name": "_startTime",
          "type": "uint256"
        },
        {
          "internalType": "uint256",
          "name": "_endTime",
          "type": "uint256"
        }
      ],
      "name": "updateElection",
      "outputs": [],
      "stateMutability": "nonpayable",
      "type": "function"
    },
    {
      "inputs": [
        {
          "internalType": "address",
          "name": "_voterAddr",
          "type": "address"
        }
      ],
      "name": "verifyVoter",
      "outputs": [],
      "stateMutability": "nonpayable",
      "type": "function"
    },
    {
      "inputs": [
        {
          "internalType": "uint256",
          "name": "_electionId",
          "type": "uint256"
        },
        {
          "internalType": "uint256",
          "name": "_candidateId",
          "type": "uint256"
        }
      ],
      "name": "vote",
      "outputs": [],
      "stateMutability": "nonpayable",
      "type": "function"
    },
    {
      "inputs": [],
      "name": "voterCount",
      "outputs": [
        {
          "internalType": "uint256",
          "name": "",
          "type": "uint256"
        }
      ],
      "stateMutability": "view",
      "type": "function"
    },
    {
      "inputs": [
        {
          "internalType": "address",
          "name": "",
          "type": "address"
        }
      ],
      "name": "voters",
      "outputs": [
        {
          "internalType": "string",
          "name": "name",
          "type": "string"
        },
        {
          "internalType": "string",
          "name": "matricNo",
          "type": "string"
        },
        {
          "internalType": "address",
          "name": "wallet",
          "type": "address"
        },
        {
          "internalType": "bool",
          "name": "isVerified",
          "type": "bool"
        },
        {
          "internalType": "bool",
          "name": "hasVoted",
          "type": "bool"
        }
      ],
      "stateMutability": "view",
      "type": "function"
    }
  ],
  "bytecode": "0x608060405234801561001057600080fd5b50336000806101000a81548173ffffffffffffffffffffffffffffffffffffffff021916908373ffffffffffffffffffffffffffffffffffffffff1602179055506141b6806100606000396000f3fe608060405234801561001057600080fd5b506004361061014d5760003560e01c80637fd5f268116100c3578063a520d3221161007c578063a520d322146103d2578063b384abef14610402578063d4f50f981461041e578063ec46c75414610452578063f851a4401461046e578063fd11f97a1461048c5761014d565b80637fd5f268146102e157806381a60c0d146102ff5780638a4c88471461032f578063997d28301461034b5780639d71077714610369578063a3ec138d1461039e5761014d565b80633e39a7a5116101155780633e39a7a5146101f457806342169e48146102245780634bd46448146102425780635e6fef0114610274578063740c47d4146102a95780637ad36e84146102c55761014d565b806309bd0950146101525780631750a3d01461016e57806335bbe70e1461018a57806336af08a5146101a85780633ce3b25d146101c4575b600080fd5b61016c60048036038101906101679190612977565b6104bc565b005b61018860048036038101906101839190612b20565b610638565b005b610192610838565b60405161019f9190612d64565b60405180910390f35b6101c260048036038101906101bd9190612d86565b610b18565b005b6101de60048036038101906101d99190612977565b610cd6565b6040516101eb9190612e48565b60405180910390f35b61020e60048036038101906102099190612e63565b610d2f565b60405161021b9190612fb1565b60405180910390f35b61022c610f1d565b6040516102399190612fe2565b60405180910390f35b61025c60048036038101906102579190612ffd565b610f23565b60405161026b93929190613087565b60405180910390f35b61028e60048036038101906102899190612e63565b61104f565b6040516102a0969594939291906130c5565b60405180910390f35b6102c360048036038101906102be9190612e63565b61119b565b005b6102df60048036038101906102da9190613134565b61137a565b005b6102e9611542565b6040516102f69190613325565b60405180910390f35b61031960048036038101906103149190612e63565b611760565b6040516103269190612fb1565b60405180910390f35b61034960048036038101906103449190613347565b611948565b005b610353611d5b565b6040516103609190612fe2565b60405180910390f35b610383600480360381019061037e9190612e63565b611d61565b604051610395969594939291906130c5565b60405180910390f35b6103b860048036038101906103b39190612977565b611f1f565b6040516103c99594939291906133ce565b60405180910390f35b6103ec60048036038101906103e7919061342f565b61209f565b6040516103f99190613478565b60405180910390f35b61041c60048036038101906104179190612ffd565b6120e8565b005b61043860048036038101906104339190612977565b61243c565b6040516104499594939291906133ce565b60405180910390f35b61046c60048036038101906104679190612e63565b612603565b005b61047661278b565b6040516104839190613478565b60405180910390f35b6104a660048036038101906104a19190612977565b6127af565b6040516104b39190612e48565b60405180910390f35b60008054906101000a900473ffffffffffffffffffffffffffffffffffffffff1673ffffffffffffffffffffffffffffffffffffffff163373ffffffffffffffffffffffffffffffffffffffff161461054a576040517f08c379a000000000000000000000000000000000000000000000000000000000815260040161054190613505565b60405180910390fd5b6000600460008373ffffffffffffffffffffffffffffffffffffffff1673ffffffffffffffffffffffffffffffffffffffff1681526020019081526020016000209050600081600101805461059e90613554565b9050116105e0576040517f08c379a00000000000000000000000000000000000000000000000000000000081526004016105d7906135d1565b60405180910390fd5b60018160020160146101000a81548160ff0219169083151502179055507f73d35f4b5dc2339683083dec639ba37f0f5592fc26de0e0603ac5ba2412cd0048260405161062c9190613478565b60405180910390a15050565b60008054906101000a900473ffffffffffffffffffffffffffffffffffffffff1673ffffffffffffffffffffffffffffffffffffffff163373ffffffffffffffffffffffffffffffffffffffff16146106c6576040517f08c379a00000000000000000000000000000000000000000000000000000000081526004016106bd90613505565b60405180910390fd5b816000811180156106d957506001548111155b610718576040517f08c379a000000000000000000000000000000000000000000000000000000000815260040161070f9061363d565b60405180910390fd5b600082511161075c576040517f08c379a0000000000000000000000000000000000000000000000000000000008152600401610753906136a9565b60405180910390fd5b6000600360008581526020019081526020016000209050806005016000815480929190610788906136f8565b91905055506040518060600160405280826005015481526020018481526020016000815250816006016000836005015481526020019081526020016000206000820151816000015560208201518160010190816107e591906138ec565b50604082015181600201559050507fed8911b3df733b7d5f75724158e54478ea12e30f49c9d31b5261879f5b76586f8482600501548560405161082a939291906139be565b60405180910390a150505050565b6060600060068054905067ffffffffffffffff81111561085b5761085a6129f5565b5b60405190808252806020026020018201604052801561089457816020015b610881612808565b8152602001906001900390816108795790505b50905060005b600680549050811015610b105760046000600683815481106108bf576108be6139fc565b5b9060005260206000200160009054906101000a900473ffffffffffffffffffffffffffffffffffffffff1673ffffffffffffffffffffffffffffffffffffffff1673ffffffffffffffffffffffffffffffffffffffff1681526020019081526020016000206040518060a001604052908160008201805461093f90613554565b80601f016020809104026020016040519081016040528092919081815260200182805461096b90613554565b80156109b85780601f1061098d576101008083540402835291602001916109b8565b820191906000526020600020905b81548152906001019060200180831161099b57829003601f168201915b505050505081526020016001820180546109d190613554565b80601f01602080910402602001604051908101604052809291908181526020018280546109fd90613554565b8015610a4a5780601f10610a1f57610100808354040283529160200191610a4a565b820191906000526020600020905b815481529060010190602001808311610a2d57829003601f168201915b505050505081526020016002820160009054906101000a900473ffffffffffffffffffffffffffffffffffffffff1673ffffffffffffffffffffffffffffffffffffffff1673ffffffffffffffffffffffffffffffffffffffff1681526020016002820160149054906101000a900460ff161515151581526020016002820160159054906101000a900460ff161515151581525050828281518110610af257610af16139fc565b5b60200260200101819052508080610b08906136f8565b91505061089a565b508091505090565b60008054906101000a900473ffffffffffffffffffffffffffffffffffffffff1673ffffffffffffffffffffffffffffffffffffffff163373ffffffffffffffffffffffffffffffffffffffff1614610ba6576040517f08c379a0000000000000000000000000000000000000000000000000000000008152600401610b9d90613505565b60405180910390fd5b84600081118015610bb957506001548111155b610bf8576040517f08c379a0000000000000000000000000000000000000000000000000000000008152600401610bef9061363d565b60405180910390fd5b600060036000888152602001908152602001600020905080600301544210610c55576040517f08c379a0000000000000000000000000000000000000000000000000000000008152600401610c4c90613a77565b60405180910390fd5b838311610c97576040517f08c379a0000000000000000000000000000000000000000000000000000000008152600401610c8e90613ae3565b60405180910390fd5b85816001019081610ca891906138ec565b5084816002019081610cba91906138ec565b5083816003018190555082816004018190555050505050505050565b6000600460008373ffffffffffffffffffffffffffffffffffffffff1673ffffffffffffffffffffffffffffffffffffffff16815260200190815260200160002060020160149054906101000a900460ff169050919050565b606081600081118015610d4457506001548111155b610d83576040517f08c379a0000000000000000000000000000000000000000000000000000000008152600401610d7a9061363d565b60405180910390fd5b60006003600085815260200190815260200160002090506000816005015467ffffffffffffffff811115610dba57610db96129f5565b5b604051908082528060200260200182016040528015610df357816020015b610de0612851565b815260200190600190039081610dd85790505b5090506000600190505b82600501548111610f1157600083600601600083815260200190815260200160002090508060405180606001604052908160008201548152602001600182018054610e4790613554565b80601f0160208091040260200160405190810160405280929190818152602001828054610e7390613554565b8015610ec05780601f10610e9557610100808354040283529160200191610ec0565b820191906000526020600020905b815481529060010190602001808311610ea357829003601f168201915b5050505050815260200160028201548152505083600184610ee19190613b03565b81518110610ef257610ef16139fc565b5b6020026020010181905250508080610f09906136f8565b915050610dfd565b50809350505050919050565b60025481565b60006060600084600081118015610f3c57506001548111155b610f7b576040517f08c379a0000000000000000000000000000000000000000000000000000000008152600401610f729061363d565b60405180910390fd5b600060036000888152602001908152602001600020600601600087815260200190815260200160002090508060000154816001018260020154818054610fc090613554565b80601f0160208091040260200160405190810160405280929190818152602001828054610fec90613554565b80156110395780601f1061100e57610100808354040283529160200191611039565b820191906000526020600020905b81548152906001019060200180831161101c57829003601f168201915b5050505050915094509450945050509250925092565b600360205280600052604060002060009150905080600001549080600101805461107890613554565b80601f01602080910402602001604051908101604052809291908181526020018280546110a490613554565b80156110f15780601f106110c6576101008083540402835291602001916110f1565b820191906000526020600020905b8154815290600101906020018083116110d457829003601f168201915b50505050509080600201805461110690613554565b80601f016020809104026020016040519081016040528092919081815260200182805461113290613554565b801561117f5780601f106111545761010080835404028352916020019161117f565b820191906000526020600020905b81548152906001019060200180831161116257829003601f168201915b5050505050908060030154908060040154908060050154905086565b60008054906101000a900473ffffffffffffffffffffffffffffffffffffffff1673ffffffffffffffffffffffffffffffffffffffff163373ffffffffffffffffffffffffffffffffffffffff1614611229576040517f08c379a000000000000000000000000000000000000000000000000000000000815260040161122090613505565b60405180910390fd5b8060008111801561123c57506001548111155b61127b576040517f08c379a00000000000000000000000000000000000000000000000000000000081526004016112729061363d565b60405180910390fd5b6000600360008481526020019081526020016000209050806003015442106112d8576040517f08c379a00000000000000000000000000000000000000000000000000000000081526004016112cf90613a77565b60405180910390fd5b600081600501541461131f576040517f08c379a000000000000000000000000000000000000000000000000000000000815260040161131690613b83565b60405180910390fd5b6003600084815260200190815260200160002060008082016000905560018201600061134b9190612872565b60028201600061135b9190612872565b6003820160009055600482016000905560058201600090555050505050565b60008054906101000a900473ffffffffffffffffffffffffffffffffffffffff1673ffffffffffffffffffffffffffffffffffffffff163373ffffffffffffffffffffffffffffffffffffffff1614611408576040517f08c379a00000000000000000000000000000000000000000000000000000000081526004016113ff90613505565b60405180910390fd5b600084511161144c576040517f08c379a000000000000000000000000000000000000000000000000000000000815260040161144390613bef565b60405180910390fd5b81811161148e576040517f08c379a000000000000000000000000000000000000000000000000000000000815260040161148590613ae3565b60405180910390fd5b600160008154809291906114a1906136f8565b9190505550600060036000600154815260200190815260200160002090506001548160000181905550848160010190816114db91906138ec565b50838160020190816114ed91906138ec565b508281600301819055508181600401819055507f52be7c4e77b4de76b7607d621492061fe13b58597e72dfb5e51ab8f6187ed14160015486604051611533929190613c0f565b60405180910390a15050505050565b6060600060015467ffffffffffffffff811115611562576115616129f5565b5b60405190808252806020026020018201604052801561159b57816020015b6115886128b2565b8152602001906001900390816115805790505b5090506000600190505b60015481116117585760006003600083815260200190815260200160002090506040518060c00160405280826000015481526020018260010180546115e990613554565b80601f016020809104026020016040519081016040528092919081815260200182805461161590613554565b80156116625780601f1061163757610100808354040283529160200191611662565b820191906000526020600020905b81548152906001019060200180831161164557829003601f168201915b5050505050815260200182600201805461167b90613554565b80601f01602080910402602001604051908101604052809291908181526020018280546116a790613554565b80156116f45780601f106116c9576101008083540402835291602001916116f4565b820191906000526020600020905b8154815290600101906020018083116116d757829003601f168201915b5050505050815260200182600301548152602001826004015481526020018260050154815250836001846117289190613b03565b81518110611739576117386139fc565b5b6020026020010181905250508080611750906136f8565b9150506115a5565b508091505090565b60608160008111801561177557506001548111155b6117b4576040517f08c379a00000000000000000000000000000000000000000000000000000000081526004016117ab9061363d565b60405180910390fd5b60006003600085815260200190815260200160002090506000816005015467ffffffffffffffff8111156117eb576117ea6129f5565b5b60405190808252806020026020018201604052801561182457816020015b611811612851565b8152602001906001900390816118095790505b5090506000600190505b8260050154811161193c578260060160008281526020019081526020016000206040518060600160405290816000820154815260200160018201805461187390613554565b80601f016020809104026020016040519081016040528092919081815260200182805461189f90613554565b80156118ec5780601f106118c1576101008083540402835291602001916118ec565b820191906000526020600020905b8154815290600101906020018083116118cf57829003601f168201915b505050505081526020016002820154815250508260018361190d9190613b03565b8151811061191e5761191d6139fc565b5b60200260200101819052508080611934906136f8565b91505061182e565b50809350505050919050565b600082511161198c576040517f08c379a000000000000000000000000000000000000000000000000000000000815260040161198390613c8b565b60405180910390fd5b60008151116119d0576040517f08c379a00000000000000000000000000000000000000000000000000000000081526004016119c790613cf7565b60405180910390fd5b600073ffffffffffffffffffffffffffffffffffffffff166005826040516119f89190613d53565b908152602001604051809103902060009054906101000a900473ffffffffffffffffffffffffffffffffffffffff1673ffffffffffffffffffffffffffffffffffffffff1614611a7d576040517f08c379a0000000000000000000000000000000000000000000000000000000008152600401611a7490613db6565b60405180910390fd5b6000600460003373ffffffffffffffffffffffffffffffffffffffff1673ffffffffffffffffffffffffffffffffffffffff1681526020019081526020016000206001018054611acc90613554565b905014611b0e576040517f08c379a0000000000000000000000000000000000000000000000000000000008152600401611b0590613e22565b60405180910390fd5b6040518060a001604052808381526020018281526020013373ffffffffffffffffffffffffffffffffffffffff16815260200160001515815260200160001515815250600460003373ffffffffffffffffffffffffffffffffffffffff1673ffffffffffffffffffffffffffffffffffffffff1681526020019081526020016000206000820151816000019081611ba591906138ec565b506020820151816001019081611bbb91906138ec565b5060408201518160020160006101000a81548173ffffffffffffffffffffffffffffffffffffffff021916908373ffffffffffffffffffffffffffffffffffffffff16021790555060608201518160020160146101000a81548160ff02191690831515021790555060808201518160020160156101000a81548160ff02191690831515021790555090505033600582604051611c579190613d53565b908152602001604051809103902060006101000a81548173ffffffffffffffffffffffffffffffffffffffff021916908373ffffffffffffffffffffffffffffffffffffffff1602179055506006339080600181540180825580915050600190039060005260206000200160009091909190916101000a81548173ffffffffffffffffffffffffffffffffffffffff021916908373ffffffffffffffffffffffffffffffffffffffff16021790555060026000815480929190611d19906136f8565b91905055507fffeb7702be7dcd8fee170d954b70afb9a7c78f7f5cff232d037e7b9d8243356a3382604051611d4f929190613e42565b60405180910390a15050565b60015481565b6000606080600080600086600081118015611d7e57506001548111155b611dbd576040517f08c379a0000000000000000000000000000000000000000000000000000000008152600401611db49061363d565b60405180910390fd5b6000600360008a8152602001908152602001600020905080600001548160010182600201836003015484600401548560050154848054611dfc90613554565b80601f0160208091040260200160405190810160405280929190818152602001828054611e2890613554565b8015611e755780601f10611e4a57610100808354040283529160200191611e75565b820191906000526020600020905b815481529060010190602001808311611e5857829003601f168201915b50505050509450838054611e8890613554565b80601f0160208091040260200160405190810160405280929190818152602001828054611eb490613554565b8015611f015780601f10611ed657610100808354040283529160200191611f01565b820191906000526020600020905b815481529060010190602001808311611ee457829003601f168201915b50505050509350975097509750975097509750505091939550919395565b6004602052806000526040600020600091509050806000018054611f4290613554565b80601f0160208091040260200160405190810160405280929190818152602001828054611f6e90613554565b8015611fbb5780601f10611f9057610100808354040283529160200191611fbb565b820191906000526020600020905b815481529060010190602001808311611f9e57829003601f168201915b505050505090806001018054611fd090613554565b80601f0160208091040260200160405190810160405280929190818152602001828054611ffc90613554565b80156120495780601f1061201e57610100808354040283529160200191612049565b820191906000526020600020905b81548152906001019060200180831161202c57829003601f168201915b5050505050908060020160009054906101000a900473ffffffffffffffffffffffffffffffffffffffff16908060020160149054906101000a900460ff16908060020160159054906101000a900460ff16905085565b6005818051602081018201805184825260208301602085012081835280955050505050506000915054906101000a900473ffffffffffffffffffffffffffffffffffffffff1681565b816000811180156120fb57506001548111155b61213a576040517f08c379a00000000000000000000000000000000000000000000000000000000081526004016121319061363d565b60405180910390fd5b60006003600085815260200190815260200160002090506000600460003373ffffffffffffffffffffffffffffffffffffffff1673ffffffffffffffffffffffffffffffffffffffff16815260200190815260200160002090508060020160149054906101000a900460ff166121e5576040517f08c379a00000000000000000000000000000000000000000000000000000000081526004016121dc90613ebe565b60405180910390fd5b816003015442101561222c576040517f08c379a000000000000000000000000000000000000000000000000000000000815260040161222390613f2a565b60405180910390fd5b8160040154421115612273576040517f08c379a000000000000000000000000000000000000000000000000000000000815260040161226a90613f96565b60405180910390fd5b8160070160003373ffffffffffffffffffffffffffffffffffffffff1673ffffffffffffffffffffffffffffffffffffffff16815260200190815260200160002060009054906101000a900460ff1615612302576040517f08c379a00000000000000000000000000000000000000000000000000000000081526004016122f990614028565b60405180910390fd5b600084118015612316575081600501548411155b612355576040517f08c379a000000000000000000000000000000000000000000000000000000000815260040161234c90614094565b60405180910390fd5b816006016000858152602001908152602001600020600201600081548092919061237e906136f8565b919050555060018260070160003373ffffffffffffffffffffffffffffffffffffffff1673ffffffffffffffffffffffffffffffffffffffff16815260200190815260200160002060006101000a81548160ff02191690831515021790555060018160020160156101000a81548160ff0219169083151502179055507fe7ee74ca1f4bb1b82b14f87794c45b3e59c39e372b862fb97a6316b43355b69e85338660405161242d939291906140b4565b60405180910390a15050505050565b606080600080600080600460008873ffffffffffffffffffffffffffffffffffffffff1673ffffffffffffffffffffffffffffffffffffffff168152602001908152602001600020905080600001816001018260020160009054906101000a900473ffffffffffffffffffffffffffffffffffffffff168360020160149054906101000a900460ff168460020160159054906101000a900460ff168480546124e390613554565b80601f016020809104026020016040519081016040528092919081815260200182805461250f90613554565b801561255c5780601f106125315761010080835404028352916020019161255c565b820191906000526020600020905b81548152906001019060200180831161253f57829003601f168201915b5050505050945083805461256f90613554565b80601f016020809104026020016040519081016040528092919081815260200182805461259b90613554565b80156125e85780601f106125bd576101008083540402835291602001916125e8565b820191906000526020600020905b8154815290600101906020018083116125cb57829003601f168201915b50505050509350955095509550955095505091939590929450565b60008054906101000a900473ffffffffffffffffffffffffffffffffffffffff1673ffffffffffffffffffffffffffffffffffffffff163373ffffffffffffffffffffffffffffffffffffffff1614612691576040517f08c379a000000000000000000000000000000000000000000000000000000000815260040161268890613505565b60405180910390fd5b806000811180156126a457506001548111155b6126e3576040517f08c379a00000000000000000000000000000000000000000000000000000000081526004016126da9061363d565b60405180910390fd5b600060036000848152602001908152602001600020905080600401544210612740576040517f08c379a000000000000000000000000000000000000000000000000000000000815260040161273790614137565b60405180910390fd5b4281600401819055507f32e2c12037f9600b91a766ce53eab6909f3bdb865851cd9a8c7fafbdf249a9ce83826004015460405161277e929190614157565b60405180910390a1505050565b60008054906101000a900473ffffffffffffffffffffffffffffffffffffffff1681565b6000600460008373ffffffffffffffffffffffffffffffffffffffff1673ffffffffffffffffffffffffffffffffffffffff16815260200190815260200160002060020160159054906101000a900460ff169050919050565b6040518060a001604052806060815260200160608152602001600073ffffffffffffffffffffffffffffffffffffffff1681526020016000151581526020016000151581525090565b60405180606001604052806000815260200160608152602001600081525090565b50805461287e90613554565b6000825580601f1061289057506128af565b601f0160209004906000526020600020908101906128ae91906128e8565b5b50565b6040518060c001604052806000815260200160608152602001606081526020016000815260200160008152602001600081525090565b5b808211156129015760008160009055506001016128e9565b5090565b6000604051905090565b600080fd5b600080fd5b600073ffffffffffffffffffffffffffffffffffffffff82169050919050565b600061294482612919565b9050919050565b61295481612939565b811461295f57600080fd5b50565b6000813590506129718161294b565b92915050565b60006020828403121561298d5761298c61290f565b5b600061299b84828501612962565b91505092915050565b6000819050919050565b6129b7816129a4565b81146129c257600080fd5b50565b6000813590506129d4816129ae565b92915050565b600080fd5b600080fd5b6000601f19601f8301169050919050565b7f4e487b7100000000000000000000000000000000000000000000000000000000600052604160045260246000fd5b612a2d826129e4565b810181811067ffffffffffffffff82111715612a4c57612a4b6129f5565b5b80604052505050565b6000612a5f612905565b9050612a6b8282612a24565b919050565b600067ffffffffffffffff821115612a8b57612a8a6129f5565b5b612a94826129e4565b9050602081019050919050565b82818337600083830152505050565b6000612ac3612abe84612a70565b612a55565b905082815260208101848484011115612adf57612ade6129df565b5b612aea848285612aa1565b509392505050565b600082601f830112612b0757612b066129da565b5b8135612b17848260208601612ab0565b91505092915050565b60008060408385031215612b3757612b3661290f565b5b6000612b45858286016129c5565b925050602083013567ffffffffffffffff811115612b6657612b65612914565b5b612b7285828601612af2565b9150509250929050565b600081519050919050565b600082825260208201905092915050565b6000819050602082019050919050565b600081519050919050565b600082825260208201905092915050565b60005b83811015612be2578082015181840152602081019050612bc7565b60008484015250505050565b6000612bf982612ba8565b612c038185612bb3565b9350612c13818560208601612bc4565b612c1c816129e4565b840191505092915050565b612c3081612939565b82525050565b60008115159050919050565b612c4b81612c36565b82525050565b600060a0830160008301518482036000860152612c6e8282612bee565b91505060208301518482036020860152612c888282612bee565b9150506040830151612c9d6040860182612c27565b506060830151612cb06060860182612c42565b506080830151612cc36080860182612c42565b508091505092915050565b6000612cda8383612c51565b905092915050565b6000602082019050919050565b6000612cfa82612b7c565b612d048185612b87565b935083602082028501612d1685612b98565b8060005b85811015612d525784840389528151612d338582612cce565b9450612d3e83612ce2565b925060208a01995050600181019050612d1a565b50829750879550505050505092915050565b60006020820190508181036000830152612d7e8184612cef565b905092915050565b600080600080600060a08688031215612da257612da161290f565b5b6000612db0888289016129c5565b955050602086013567ffffffffffffffff811115612dd157612dd0612914565b5b612ddd88828901612af2565b945050604086013567ffffffffffffffff811115612dfe57612dfd612914565b5b612e0a88828901612af2565b9350506060612e1b888289016129c5565b9250506080612e2c888289016129c5565b9150509295509295909350565b612e4281612c36565b82525050565b6000602082019050612e5d6000830184612e39565b92915050565b600060208284031215612e7957612e7861290f565b5b6000612e87848285016129c5565b91505092915050565b600081519050919050565b600082825260208201905092915050565b6000819050602082019050919050565b612ec5816129a4565b82525050565b6000606083016000830151612ee36000860182612ebc565b5060208301518482036020860152612efb8282612bee565b9150506040830151612f106040860182612ebc565b508091505092915050565b6000612f278383612ecb565b905092915050565b6000602082019050919050565b6000612f4782612e90565b612f518185612e9b565b935083602082028501612f6385612eac565b8060005b85811015612f9f5784840389528151612f808582612f1b565b9450612f8b83612f2f565b925060208a01995050600181019050612f67565b50829750879550505050505092915050565b60006020820190508181036000830152612fcb8184612f3c565b905092915050565b612fdc816129a4565b82525050565b6000602082019050612ff76000830184612fd3565b92915050565b600080604083850312156130145761301361290f565b5b6000613022858286016129c5565b9250506020613033858286016129c5565b9150509250929050565b600082825260208201905092915050565b600061305982612ba8565b613063818561303d565b9350613073818560208601612bc4565b61307c816129e4565b840191505092915050565b600060608201905061309c6000830186612fd3565b81810360208301526130ae818561304e565b90506130bd6040830184612fd3565b949350505050565b600060c0820190506130da6000830189612fd3565b81810360208301526130ec818861304e565b90508181036040830152613100818761304e565b905061310f6060830186612fd3565b61311c6080830185612fd3565b61312960a0830184612fd3565b979650505050505050565b6000806000806080858703121561314e5761314d61290f565b5b600085013567ffffffffffffffff81111561316c5761316b612914565b5b61317887828801612af2565b945050602085013567ffffffffffffffff81111561319957613198612914565b5b6131a587828801612af2565b93505060406131b6878288016129c5565b92505060606131c7878288016129c5565b91505092959194509250565b600081519050919050565b600082825260208201905092915050565b6000819050602082019050919050565b600060c0830160008301516132176000860182612ebc565b506020830151848203602086015261322f8282612bee565b915050604083015184820360408601526132498282612bee565b915050606083015161325e6060860182612ebc565b5060808301516132716080860182612ebc565b5060a083015161328460a0860182612ebc565b508091505092915050565b600061329b83836131ff565b905092915050565b6000602082019050919050565b60006132bb826131d3565b6132c581856131de565b9350836020820285016132d7856131ef565b8060005b8581101561331357848403895281516132f4858261328f565b94506132ff836132a3565b925060208a019950506001810190506132db565b50829750879550505050505092915050565b6000602082019050818103600083015261333f81846132b0565b905092915050565b6000806040838503121561335e5761335d61290f565b5b600083013567ffffffffffffffff81111561337c5761337b612914565b5b61338885828601612af2565b925050602083013567ffffffffffffffff8111156133a9576133a8612914565b5b6133b585828601612af2565b9150509250929050565b6133c881612939565b82525050565b600060a08201905081810360008301526133e8818861304e565b905081810360208301526133fc818761304e565b905061340b60408301866133bf565b6134186060830185612e39565b6134256080830184612e39565b9695505050505050565b6000602082840312156134455761344461290f565b5b600082013567ffffffffffffffff81111561346357613462612914565b5b61346f84828501612af2565b91505092915050565b600060208201905061348d60008301846133bf565b92915050565b7f4f6e6c7920617574686f72697a656420757365722063616e20706572666f726d60008201527f207468697320616374696f6e0000000000000000000000000000000000000000602082015250565b60006134ef602c8361303d565b91506134fa82613493565b604082019050919050565b6000602082019050818103600083015261351e816134e2565b9050919050565b7f4e487b7100000000000000000000000000000000000000000000000000000000600052602260045260246000fd5b6000600282049050600182168061356c57607f821691505b60208210810361357f5761357e613525565b5b50919050565b7f566f746572206e6f742072656769737465726564000000000000000000000000600082015250565b60006135bb60148361303d565b91506135c682613585565b602082019050919050565b600060208201905081810360008301526135ea816135ae565b9050919050565b7f456c656374696f6e20646f6573206e6f74206578697374000000000000000000600082015250565b600061362760178361303d565b9150613632826135f1565b602082019050919050565b600060208201905081810360008301526136568161361a565b9050919050565b7f43616e646964617465206e616d65207265717569726564000000000000000000600082015250565b600061369360178361303d565b915061369e8261365d565b602082019050919050565b600060208201905081810360008301526136c281613686565b9050919050565b7f4e487b7100000000000000000000000000000000000000000000000000000000600052601160045260246000fd5b6000613703826129a4565b91507fffffffffffffffffffffffffffffffffffffffffffffffffffffffffffffffff8203613735576137346136c9565b5b600182019050919050565b60008190508160005260206000209050919050565b60006020601f8301049050919050565b600082821b905092915050565b6000600883026137a27fffffffffffffffffffffffffffffffffffffffffffffffffffffffffffffffff82613765565b6137ac8683613765565b95508019841693508086168417925050509392505050565b6000819050919050565b60006137e96137e46137df846129a4565b6137c4565b6129a4565b9050919050565b6000819050919050565b613803836137ce565b61381761380f826137f0565b848454613772565b825550505050565b600090565b61382c61381f565b6138378184846137fa565b505050565b5b8181101561385b57613850600082613824565b60018101905061383d565b5050565b601f8211156138a05761387181613740565b61387a84613755565b81016020851015613889578190505b61389d61389585613755565b83018261383c565b50505b505050565b600082821c905092915050565b60006138c3600019846008026138a5565b1980831691505092915050565b60006138dc83836138b2565b9150826002028217905092915050565b6138f582612ba8565b67ffffffffffffffff81111561390e5761390d6129f5565b5b6139188254613554565b61392382828561385f565b600060209050601f8311600181146139565760008415613944578287015190505b61394e85826138d0565b8655506139b6565b601f19841661396486613740565b60005b8281101561398c57848901518255600182019150602085019450602081019050613967565b868310156139a957848901516139a5601f8916826138b2565b8355505b6001600288020188555050505b505050505050565b60006060820190506139d36000830186612fd3565b6139e06020830185612fd3565b81810360408301526139f2818461304e565b9050949350505050565b7f4e487b7100000000000000000000000000000000000000000000000000000000600052603260045260246000fd5b7f456c656374696f6e20616c726561647920737461727465640000000000000000600082015250565b6000613a6160188361303d565b9150613a6c82613a2b565b602082019050919050565b60006020820190508181036000830152613a9081613a54565b9050919050565b7f496e76616c69642074696d652072616e67650000000000000000000000000000600082015250565b6000613acd60128361303d565b9150613ad882613a97565b602082019050919050565b60006020820190508181036000830152613afc81613ac0565b9050919050565b6000613b0e826129a4565b9150613b19836129a4565b9250828203905081811115613b3157613b306136c9565b5b92915050565b7f456c656374696f6e20616c7265616479206861732063616e6469646174657300600082015250565b6000613b6d601f8361303d565b9150613b7882613b37565b602082019050919050565b60006020820190508181036000830152613b9c81613b60565b9050919050565b7f5469746c65207265717569726564000000000000000000000000000000000000600082015250565b6000613bd9600e8361303d565b9150613be482613ba3565b602082019050919050565b60006020820190508181036000830152613c0881613bcc565b9050919050565b6000604082019050613c246000830185612fd3565b8181036020830152613c36818461304e565b90509392505050565b7f4e616d6520726571756972656400000000000000000000000000000000000000600082015250565b6000613c75600d8361303d565b9150613c8082613c3f565b602082019050919050565b60006020820190508181036000830152613ca481613c68565b9050919050565b7f4d6174726963206e756d62657220726571756972656400000000000000000000600082015250565b6000613ce160168361303d565b9150613cec82613cab565b602082019050919050565b60006020820190508181036000830152613d1081613cd4565b9050919050565b600081905092915050565b6000613d2d82612ba8565b613d378185613d17565b9350613d47818560208601612bc4565b80840191505092915050565b6000613d5f8284613d22565b915081905092915050565b7f4d6174726963206e756d62657220616c72656164792072656769737465726564600082015250565b6000613da060208361303d565b9150613dab82613d6a565b602082019050919050565b60006020820190508181036000830152613dcf81613d93565b9050919050565b7f416c726561647920726567697374657265640000000000000000000000000000600082015250565b6000613e0c60128361303d565b9150613e1782613dd6565b602082019050919050565b60006020820190508181036000830152613e3b81613dff565b9050919050565b6000604082019050613e5760008301856133bf565b8181036020830152613e69818461304e565b90509392505050565b7f566f746572206e6f742076657269666965640000000000000000000000000000600082015250565b6000613ea860128361303d565b9150613eb382613e72565b602082019050919050565b60006020820190508181036000830152613ed781613e9b565b9050919050565b7f456c656374696f6e20686173206e6f7420737461727465640000000000000000600082015250565b6000613f1460188361303d565b9150613f1f82613ede565b602082019050919050565b60006020820190508181036000830152613f4381613f07565b9050919050565b7f456c656374696f6e2068617320656e6465640000000000000000000000000000600082015250565b6000613f8060128361303d565b9150613f8b82613f4a565b602082019050919050565b60006020820190508181036000830152613faf81613f73565b9050919050565b7f596f7520616c726561647920766f74656420696e207468697320656c6563746960008201527f6f6e000000000000000000000000000000000000000000000000000000000000602082015250565b600061401260228361303d565b915061401d82613fb6565b604082019050919050565b6000602082019050818103600083015261404181614005565b9050919050565b7f496e76616c69642063616e646964617465000000000000000000000000000000600082015250565b600061407e60118361303d565b915061408982614048565b602082019050919050565b600060208201905081810360008301526140ad81614071565b9050919050565b60006060820190506140c96000830186612fd3565b6140d660208301856133bf565b6140e36040830184612fd3565b949350505050565b7f456c656374696f6e20616c726561647920656e64656400000000000000000000600082015250565b600061412160168361303d565b915061412c826140eb565b602082019050919050565b6000602082019050818103600083015261415081614114565b9050919050565b600060408201905061416c6000830185612fd3565b6141796020830184612fd3565b939250505056fea26469706673582212206c0efd56fd4d15c6dd3fe6a635c1bc29643c1f4465d06375b4f7027b1e6a834064736f6c63430008130033",
  "linkReferences": {},
  "deployedLinkReferences": {}
}